:100000000C94EE000C940D010C940D010C940D0158
:100010000C940D010C940D010C940D010C940D0128
:100020000C940D010C949C010C940D010C940D0189
:100030000C940D010C940D010C940D010C940D0108
:100040000C940D010C940D010C940D010C940D01F8
:100050000C940D010C940D010C940D010C942D0ABF
:100060000C940D010C940D010C940D010C940D01D8
:100070000C940D010C940D010C940D010C940D01C8
:100080000C940D010C940D010C940D016E616E0029
:10009000696E66006364696E6F70737578585B652E
:1000A000666745464700616E006E66696E697479E1
:1000B00000CDCCCC3D0AD7233C17B7D13877CC2B19
:1000C000329595E6241FB14F0A000020410000C878
:1000D0004200401C4620BCBE4CCA1B0E5AAEC59DF9
:1000E0007400407A10F35A00A0724E18090010A54F
:1000F000D4E80000E87648170000E40B5402000042
:10010000CA9A3B000000E1F50500008096980000C7
:100110000040420F000000A08601000000102700F0
:10012000000000E803000000006400000000000A76
:1001300000000000000100000000002C76D888DCE0
:10014000674F0823DFC1DFAE59E1B1B796E5E3E4BD
:1001500053C63AE651997696E8E6C28426EB898C36
:100160009B62ED407C6FFCEFBC9C9F40F2BAA56F98
:10017000A5F490055A2AF75C936B6CF9676DC11B67
:10018000FCE0E40D47FEF520E6B500D0ED902E032F
:1001900000943577050080841E080000204E0A0078
:1001A0000000C80C333333330F986E12831141EFC4
:1001B0008D2114893BE65516CFFEE6DB18D1844B22
:1001C000381BF77C1D901DA4BBE424203284725E92
:1001D000228100C9F124ECA1E53D270011241FBEB6
:1001E000CFEFD0E1DEBFCDBF13E0A0E0B1E0EEE4A1
:1001F000FDE900E00BBF02C007900D92A23CB107E1
:10020000D9F71AE0A2ECB3E001C01D92AF3EB107EE
:10021000E1F70E942F080C94A54E0C940000CF9299
:10022000DF92EF92FF920F931F93CF93DF93209172
:10023000120230911302809110029091110228173E
:10024000390729F480E091E00E94B24D6CC06091C2
:100250000E0270910F02C90101960E94A94BEC0198
:1002600090931302809312022091E8033091E903E6
:10027000D901AA0FBB1FAA53BC4FFC01EE0FFF1FF1
:10028000EA5EF94F808191818D939C9388EE93E093
:1002900044E151E0FA013197F1F70197D9F7CC0F1A
:1002A000DD1FCA5ED94F19821882C9010196909349
:1002B000E9038093E8034197B1F596ECE92E93E0CA
:1002C000F92E0EE514E0C0E0D0E08FE0C82E81E00A
:1002D000D82ED7018D919D917D01F8018193919345
:1002E0008F0100D000D000D0EDB7FEB73196ADB78A
:1002F000BEB71296DC92CE921197D383C2839583B8
:1003000084830E94A04D2196EDB7FEB736960FB6B6
:10031000F894FEBF0FBEEDBFC131D105D1F61092EA
:10032000E9031092E803DF91CF911F910F91FF90A5
:10033000EF90DF90CF9008951F920F920FB60F921B
:100340000BB60F9211242F933F934F935F936F93AC
:100350007F938F939F93AF93BF93EF93FF9380917E
:10036000C2039091C30301969093C3038093C20389
:100370008436910579F48091C4039091C503019668
:100380009093C5038093C4031092C3031092C203D9
:100390000E940F01FF91EF91BF91AF919F918F91BB
:1003A0007F916F915F914F913F912F910F900BBE75
:1003B0000F900FBE0F901F901895CF92DF92EF9283
:1003C000FF920F931F93CF93DF9380914C059091F1
:1003D0004D0590938104809380048238910509F43F
:1003E00048C0833891052CF48038910509F0C0C0CD
:1003F00009C08338910509F48CC08438910509F04F
:10040000B7C09EC040914E0550914F0550935D047A
:1004100040935C04209150053091510584E690E0B2
:10042000BC01269FC001279F900D369F900D11247F
:10043000909383048093820400D000D081E291E005
:10044000ADB7BEB712969C938E93119714965C939A
:100450004E9313970E94A04D88E291E0EDB7FEB74E
:100460009283818380918204909183049483838317
:1004700079C000914E0510914F05109385040093AB
:100480008404A0E5B5E0E6E8F4E021E030E044E6ED
:1004900050E00EC02F5F3F4F8D919D91BC01649F36
:1004A000C001659F900D749F900D112481939193CD
:1004B000021713077CF7E4E8EE2EE4E0FE2EC0E01E
:1004C000D0E072E3C72E71E0D72E1FC000D000D05D
:1004D00000D0EDB7FEB73196ADB7BEB71296DC923D
:1004E000CE921197D383C283D7018D919D917D01C7
:1004F000958384830E94A04D2196EDB7FEB7369672
:100500000FB6F894FEBF0FBEEDBF0C171D07F4F633
:100510002FC020914E0530914F0530931506209342
:10052000140600D000D08FE391E0ADB7BEB71296AD
:100530009C938E93119714963C932E93139712C00D
:1005400020914E0530914F053093150620931406E7
:1005500000D000D08FE391E0EDB7FEB792838183A6
:10056000348323830E94A04D0F900F900F900F9023
:10057000DF91CF911F910F91FF90EF90DF90CF907F
:1005800008952F923F924F925F926F927F928F9237
:100590009F92AF92BF92CF92DF92EF92FF920F9312
:1005A0001F93DF93CF93CDB7DEB7C452D1400FB6C0
:1005B000F894DEBF0FBECDBF809114069091150652
:1005C0008430910509F458C08530910554F4823087
:1005D000910541F183309105D4F5019709F0A0C050
:1005E0000CC08630910509F471C0863091050CF479
:1005F00058C0079709F094C07EC000D000D000D04A
:10060000EDB7FEB73196CE010196ADB7BEB71296E3
:100610009C938E93119788E491E0938382838DE479
:1006200091E092C000D000D000D0EDB7FEB7319677
:10063000CE010196ADB7BEB712969C938E931197DB
:1006400088E491E09383828382E591E07DC000D0CD
:1006500000D000D0EDB7FEB73196CE010196ADB710
:10066000BEB712969C938E93119788E491E0938382
:10067000828387E591E068C000D000D000D0EDB75C
:10068000FEB73196CE010196ADB7BEB712969C93D8
:100690008E93119788E491E0938382838CE591E0B7
:1006A00053C000D000D000D0EDB7FEB73196CE01D8
:1006B0000196ADB7BEB712969C938E93119788E4BE
:1006C00091E09383828381E691E03EC000D000D028
:1006D00000D0EDB7FEB73196CE010196ADB7BEB7EB
:1006E00012969C938E93119788E491E09383828372
:1006F00086E691E029C000D000D000D0EDB7FEB76B
:100700003196CE010196ADB7BEB712969C938E93EB
:10071000119788E491E0938382838BE691E014C083
:1007200000D000D000D0EDB7FEB73196CE010196D3
:10073000ADB7BEB712969C938E93119788E491E063
:100740009383828380E791E0958384830E94F94DAF
:10075000EDB7FEB736960FB6F894FEBF0FBEEDBFED
:1007600084E060E448E07E010894E11CF11C9701FC
:100770000E94A00E84E068E443E025E731E00E9497
:10078000A00E84E068EC47E020E005E00E940A0E3D
:10079000CC24DD2402E010E065E0262E312C2C0E66
:1007A0003D1E27E530E02C0F3D1F2E5D3F4FCD5DF8
:1007B000DE4F39832883C352D14033C0F801EE0F96
:1007C000FF1FE45BFA4F80819181F601EE0FFF1F5E
:1007D000A1E0B0E0AC0FBD1FEA0FFB1F9787868733
:1007E00000D000D000D0EDB7FEB7319629E731E058
:1007F000ADB7BEB712963C932E931197D382C282A7
:10080000958384830E94A04D0894C11CD11C0F5F66
:100810001F4F8DB79EB706960FB6F8949EBF0FBEBA
:100820008DBF0632110554F2AFA4B8A83FE0E32E05
:10083000F12CEC0EFD1ECC24DD2490E1C916D10470
:10084000F9F400D000D000D0EDB7FEB73196ADB7C7
:10085000BEB712963C922E92119726E831E0338370
:100860002283B582A4820E94F94D8DB79EB7069669
:100870000FB6F8949EBF0FBE8DBF00E010E020C001
:1008800000D000D000D0EDB7FEB73196ADB7BEB7FF
:1008900012963C922E9211972CE831E033832283FA
:1008A000D7018D919C91958384830E94F94DEDB77A
:1008B000FEB736960FB6F894FEBF0FBEEDBFDDCF84
:1008C000F101E00FF11F8081882331F480E991E08C
:1008D0000E94B24DA80107C00F5F1F4F0A301105DB
:1008E00079F744E050E084E060E091010E94A00EBE
:1008F0000894C11CD11C22E030E0E20EF31E31E16D
:10090000C316D10409F099CF69A87AA800D000D005
:10091000E5E9F1E0ADB7BEB71296FC93EE931197FF
:1009200014967C926E9213970E94A04D21E0822E25
:10093000912C0F900F900F900F9093012095309570
:10094000C15EDE4F39832883CF51D140C301019668
:10095000CF5DDE4F99838883C152D140C7C0D60195
:100960008D919C91ECEDFFEFCE0EDF1ED601ED9147
:10097000FC9124E230E0C20ED31E9C012E1B3F0BE3
:100980008E179F0798F037FF03C0309521953F4F92
:10099000829EC001839E900D929E900D1124CF5D8A
:1009A000DE4F68817981C152D14012C037FF03C048
:1009B000309521953F4F829EC001839E900D929E5F
:1009C000900D1124C15EDE4F68817981CF51D140F5
:1009D0000E94BD4BE60FF71FD501ED93FC93F50187
:1009E0000081118100D000D000D0EDB7FEB7319664
:1009F0002DE931E0ADB7BEB712963C932E93119717
:100A0000F382E282158304830E94A04D8DB79EB7C6
:100A100006960FB6F8949EBF0FBE8DBF90E1E91603
:100A2000F104F9F400D000D000D0EDB7FEB7319654
:100A3000ADB7BEB712963C922E92119726E831E0E0
:100A400033832283158304830E94F94D8DB79EB7AB
:100A500006960FB6F8949EBF0FBE8DBF00E010E063
:100A60000FC000D000D000D0EDB7FEB73196ADB7C3
:100A7000BEB712963C922E9211972CE831E0E0CF4F
:100A8000F101E00FF11F8081882331F480E991E0CA
:100A90000E94B24DA80107C00F5F1F4F0A30110519
:100AA00079F744E050E084E060E091010E94A00EFC
:100AB0000894E11CF11CA2E0B0E0CA0EDB1EAA0EF5
:100AC000BB1EB1E1EB16F10409F049CFF20111921E
:100AD00011922F01CD5DDE4F28813981C352D14063
:100AE000E217F30799F70894811C911CC401019740
:100AF0008615970574F493E3C92ED12CCC0EDD1E18
:100B000087E5482E512C4C0E5D1E5201EE24FF2429
:100B100026CF67968EAD9FAD67978F3F910529F0E1
:100B2000CC24DD2402E010E07CCEFE01ED5AFF4F24
:100B30008080918003E3E02EF12CEC0EFD1ECC248E
:100B4000DD2415E0A12EB12CAC0EBD1EBCE82B2E71
:100B5000B1E03B2EA1EB4A2EA1E05A2EF3E26F2E1C
:100B6000712C30E1C316D10421F58DB79EB70897DB
:100B70000FB6F8949EBF0FBE8DBFEDB7FEB731968E
:100B8000ADB7BEB71296BC92AE9211975382428215
:100B900095828482778266820E94F94DEDB7FEB716
:100BA00038960FB6F894FEBF0FBEEDBF00E010E020
:100BB00019C000D000D000D0EDB7FEB73196ADB768
:100BC000BEB71296BC92AE92119733822282D701A1
:100BD0008D919C91958384830E94F94DEDB7FEB76A
:100BE0003696DFCFF501E00FF11F8081882331F4C5
:100BF00080E991E00E94B24DA80107C00F5F1F4F2E
:100C00000A30110579F744E050E084E060E0950196
:100C10000E94A00E0894C11CD11C22E030E0E20E1C
:100C2000F31E31E1C316D10409F09BCF84E068ECD8
:100C300041E020E000E00E940A0E87EB91E00E9474
:100C4000B24DCC5DDE4F0FB6F894DEBF0FBECDBF08
:100C5000CF91DF911F910F91FF90EF90DF90CF9098
:100C6000BF90AF909F908F907F906F905F904F90CC
:100C70003F902F900895CF92DF92EF92FF920F93C3
:100C80001F93DF93CF9300D000D0CDB7DEB784ECB5
:100C900091E00E94B24D8091140690911506843027
:100CA000910509F458C08530910554F482309105BE
:100CB00041F183309105D4F5019709F0A0C00CC033
:100CC0008630910509F471C0863091050CF458C046
:100CD000079709F094C07EC000D000D000D0EDB7D7
:100CE000FEB73196CE010196ADB7BEB712969C9372
:100CF0008E93119788E491E0938382838DE491E051
:100D000092C000D000D000D0EDB7FEB73196CE0132
:100D10000196ADB7BEB712969C938E93119788E457
:100D200091E09383828382E591E07DC000D000D082
:100D300000D0EDB7FEB73196CE010196ADB7BEB784
:100D400012969C938E93119788E491E0938382830B
:100D500087E591E068C000D000D000D0EDB7FEB7C5
:100D60003196CE010196ADB7BEB712969C938E9385
:100D7000119788E491E0938382838CE591E053C0DE
:100D800000D000D000D0EDB7FEB73196CE0101966D
:100D9000ADB7BEB712969C938E93119788E491E0FD
:100DA0009383828381E691E03EC000D000D000D0E2
:100DB000EDB7FEB73196CE010196ADB7BEB712962C
:100DC0009C938E93119788E491E09383828386E6C7
:100DD00091E029C000D000D000D0EDB7FEB7319629
:100DE000CE010196ADB7BEB712969C938E93119724
:100DF00088E491E0938382838BE691E014C000D075
:100E000000D000D0EDB7FEB73196CE010196ADB758
:100E1000BEB712969C938E93119788E491E09383CA
:100E2000828380E791E0958384830E94F94DEDB73A
:100E3000FEB736960FB6F894FEBF0FBEEDBF109208
:100E400049041092480484E060E448E09E012F5F6A
:100E50003F4F0E94A00E84E068E443E025E731E0C4
:100E60000E94A00E84E068EC4FEF20E001E00E94B9
:100E70000A0ED6C01092ED031092EC03E0910E0220
:100E8000F0910F0280911002909111020196BF0122
:100E90000E94A94B9C0190931102809310028091B3
:100EA0001202909113028217930709F091C00097E4
:100EB00031F43197F0931102E0931002B1C0019721
:100EC0009093110280931002ABC02091EA033091FD
:100ED000EB032E5F3B4F84E060E041E00E94F80CA2
:100EE0006091EA037091EB03FB01EE5FFB4F8081A1
:100EF00090E09093ED038093EC038332910509F425
:100F00006EC06F5F7F4F7093EB036093EA03615095
:100F10007040809709F05CC010827093EB0360937F
:100F2000EA037B010894E108F108A2E0B4E08EEE48
:100F3000C82E83E0D82EF60100E010E030C09C916E
:100F4000892F80538A30E8F4892F90E0C0979183ED
:100F5000808340E050E011C0808191819C01220F8C
:100F6000331F220F331F220F331F880F991F280FA3
:100F7000391F318320834F5F5F4F4E155F0564F348
:100F800007C09D3011F09A3019F41C921182108222
:100F90000F5F1F4F0894E108F1081196329606176B
:100FA00017076CF2409148045091490420E030E06A
:100FB00008C0D6018D919D916D01480F591F2F5F7B
:100FC0003F4F26173707ACF350934904409348042A
:100FD0008091EC039091ED03809709F076CFE0913A
:100FE0001002F0911102EE0FFF1FEA5EF94F80919F
:100FF000480490914904918380831092490410928F
:101000004804E2E0F4E0AEEEB3E011921D921D92CE
:1010100084E0EC30F807C9F71092EB031092EA0372
:101020008091EC039091ED03839709F023CF84E046
:1010300068EC4FEF20E000E00E940A0E8FEC91E098
:101040000E94B24D0F900F900F900F90CF91DF91B3
:101050001F910F91FF90EF90DF90CF9008952F9206
:101060003F924F925F926F927F928F929F92AF9238
:10107000BF92CF92DF92EF92FF920F931F93DF9375
:10108000CF9300D0CDB7DEB70E9436098EED91E048
:101090000E94B24D87B3806E87BBC69A67EF262E3B
:1010A00061E0362E2E010894411C511C54E8652E37
:1010B000712C02E010E04FEF842E912C33E8A32E28
:1010C000B12C2AEFC22E21E0D22E93E0E92E92E03D
:1010D000F92E85B5886085BD85B5836085BD87B7E8
:1010E000806887BF2BEA23BD789400D083EF91E01E
:1010F000EDB7FEB7928381830E94A04D00D0EDB77B
:10110000FEB732822182548243820E94E74D898158
:101110009A810F900F900F900F908130910549F4B4
:10112000B0924D05A0924C0510934F0500934E05CB
:101130001EC082309105D9F470924D0560924C0525
:1011400090934F0580934E05E0E5F5E080E59DE145
:1011500091838083039795A384A33296049625E018
:10116000E237F207A9F71183008395A284A2809148
:101170004C0590914D05909381048093800400D09C
:1011800000D0EDB7FEB7D282C182948383830E94E0
:10119000A04D0F900F900F900F9080918004909130
:1011A00081048238910571F08338910524F48038E8
:1011B0009105B9F407C08338910539F08438910559
:1011C00081F40AC00E94DD0104C00E94DD010E947A
:1011D0003B0680E090E00FC00E94DD010E94C1024A
:1011E000F8CF00D0EDB7FEB7F282E1820E94A04DA9
:1011F0000F900F90EECFFC01E45BFA4F118210824A
:10120000FC01E85BFB4F118210820296883C91053D
:1012100091F7109215061092140610928104109204
:101220008004ECE4F5E01192119226E0E431F2073B
:10123000D1F71A8219824DCF1F93182F8A3019F4D3
:101240008DE00E941C095D9BFECF1CB980E090E000
:101250001F9108951F93BC015F9BFECF1CB1812F8E
:101260000E941C09812F90E01F9108951092900018
:1012700081E189B98AB188618AB9E5E9F0E08081C4
:101280008660808387B3806E87BB84E192E0909311
:10129000EC0A8093EB0A9093EA0A8093E90A80E0D3
:1012A0000895922F483008F0A4C08A3C79F18B3C15
:1012B00030F4883C71F0893C09F09BC018C08C3C2C
:1012C00009F45CC08C3C08F43DC08D3C09F091C031
:1012D00071C088B130E002C0220F331F4A95E2F797
:1012E000962F922360958623982B98B90DC080B5D0
:1012F00030E002C0220F331F4A95E2F7962F922367
:1013000060958623982B90BD20E074C027B1E92F0B
:10131000F0E002C0EE0FFF1F4A95E2F7262330E00F
:10132000862F90E08E239F232817390711F420E0A1
:1013300001C023E087B1962F9E2360958623982BCA
:1013400097B958C026B1E92FF0E002C0EE0FFF1F99
:101350004A95E2F7262330E0862F90E08E239F23E4
:101360002817390711F420E001C023E086B1962F39
:101370009E2360958623982B96B93CC022B1E92F15
:10138000F0E002C0EE0FFF1F4A95E2F7262330E09F
:10139000862F90E08E239F232817390711F420E031
:1013A00001C022E082B1962F9E2360958623982B60
:1013B00092B920C020916100E92FF0E002C0EE0F49
:1013C000FF1F4A95E2F7262330E0862F90E08E2318
:1013D0009F232817390711F420E001C022E08091F3
:1013E0006100962F9E2360958623982B9093610031
:1013F00001C021E0822F0895483088F4883C79F4B8
:1014000088B130E002C0220F331F4A95E2F7962FD1
:10141000922360958623982B98B980E0089581E007
:101420000895F901483068F4883C59F488B186235E
:1014300090E002C0959587954A95E2F7808380E019
:10144000089581E00895882311F081E00895709354
:101450002B0660932A0680E008951F920F920FB624
:101460000F920BB60F9211242F933F934F935F93DC
:101470006F937F938F939F93AF93BF93EF93FF935C
:10148000E0912A06F0912B060995FF91EF91BF910B
:10149000AF919F918F917F916F915F914F913F910C
:1014A0002F910F900BBE0F900FBE0F901F901895AD
:1014B000922F483008F0C0C08A3C09F44AC08B3CE7
:1014C00030F4883C71F0893C09F0B6C026C08C3CF1
:1014D00009F477C08C3C08F458C08D3C09F0ACC0CE
:1014E0008CC02AB3E92FF0E002C0EE0FFF1F4A952F
:1014F000E2F7262330E0862F90E08E239F232817E3
:10150000390711F420E001C022E08AB3962F9E2310
:1015100060958623982B9ABB90C027B3E92FF0E003
:1015200002C0EE0FFF1F4A95E2F7262330E0862F18
:1015300090E08E239F232817390711F420E001C083
:1015400022E087B3962F9E2360958623982B97BB26
:1015500074C024B3E92FF0E002C0EE0FFF1F4A95DC
:10156000E2F7262330E0862F90E08E239F23281772
:10157000390711F420E001C022E084B3962F9E23A6
:1015800060958623982B94BB58C021B3E92FF0E0D7
:1015900002C0EE0FFF1F4A95E2F7262330E0862FA8
:1015A00090E08E239F232817390711F420E001C013
:1015B00022E081B3962F9E2360958623982B91BBC2
:1015C0003CC022B1E92FF0E002C0EE0FFF1F4A95A8
:1015D000E2F7262330E0862F90E08E239F23281702
:1015E000390711F420E001C022E082B1962F9E233A
:1015F00060958623982B92B920C020916100E92F35
:10160000F0E002C0EE0FFF1F4A95E2F7262330E01C
:10161000862F90E08E239F232817390711F420E0AE
:1016200001C022E080916100962F9E236095862361
:10163000982B9093610001C021E0822F0895FA0158
:101640006130C9F58230D1F0833028F4882351F01D
:10165000813089F50DC08430E9F08430A8F0853000
:1016600051F51EC08AB38F3F21F580818BBB1FC00F
:1016700087B38F3FF1F4808188BB19C084B38F3F5B
:10168000C1F4808185BB13C081B38F3F91F4808109
:1016900082BB0DC082B18F3F61F4808183B907C0E6
:1016A000809161008F3F29F480818093620080E007
:1016B000089582E0089581E00895FA01613009F00B
:1016C00042C08636F1F0873628F4843651F08536EC
:1016D000D1F50FC0883629F18836D8F0893699F5CA
:1016E00029C08AB3882311F490E001C092E089B345
:1016F0001FC087B3882311F490E001C092E086B345
:1017000017C084B3882311F490E001C092E083B342
:101710000FC081B3882311F490E001C092E080B340
:1017200007C082B1882311F490E001C092E081B13A
:1017300080830AC080916100882311F490E001C089
:1017400092E080B1F5CF91E0892F0895483008F0FC
:1017500089C08230C1F1833030F4882371F0813048
:1017600009F080C01DC0843009F452C0843008F4F0
:101770003DC0853009F076C05DC05AB35623561778
:1017800009F06EC08BB330E002C0220F331F4A95C0
:10179000E2F7952F922350955823952B9BBB5EC063
:1017A00057B35623561709F05BC088B330E002C028
:1017B000220F331F4A95E2F7952F92235095582315
:1017C000952B98BB4BC054B35623561709F048C00D
:1017D00085B330E002C0220F331F4A95E2F7952F00
:1017E000922350955823952B95BB38C051B356235F
:1017F0005617B1F582B330E002C0220F331F4A956D
:10180000E2F7952F922350955823952B92BB26C033
:1018100052B15623561721F583B130E002C0220F92
:10182000331F4A95E2F7952F922350955823952B15
:1018300093B914C0509161005623561789F48091D2
:10184000620030E002C0220F331F4A95E2F7952F65
:10185000922350955823952B9093620080E0089531
:1018600082E0089581E00895F901483008F04BC006
:10187000863601F1873630F4843661F0853609F01A
:1018800042C010C0883631F18836E0F0893609F060
:101890003AC030C08AB3862311F420E001C022E0B0
:1018A00089B31FC087B3862311F420E001C022E072
:1018B00086B317C084B3862311F420E001C022E070
:1018C00083B30FC081B3862311F420E001C022E06E
:1018D00080B307C082B1862311F420E001C022E06A
:1018E00081B1862390E002C0959587954A95E2F7ED
:1018F00080830AC080916100862311F420E001C03A
:1019000022E080B1EECF21E0822F089590E0883070
:1019100008F091E0892F0895982F88B3856088BBDF
:1019200087B3876087BB82E58DB981E08EB9983037
:1019300038F488B39295990F907E8F71892B88BB6C
:10194000089588B38F7188BB1DB887B3887F87BB24
:1019500088B3887F88BB88B388BB0895EF92FF92D5
:101960000F931F93DF93CF93CDB7DEB764970FB676
:10197000F894DEBF0FBECDBF7B012DB73EB7285018
:1019800030400FB6F8943EBF0FBE2DBFEDB7FEB787
:1019900031968E010F5F1F4FADB7BEB712961C93E5
:1019A0000E93119722E232E03383228329E232E060
:1019B00035832483978386830E94F94D2DB73EB7E4
:1019C000285F3F4F0FB6F8943EBF0FBE2DBFC80132
:1019D000B7010E94592964960FB6F894DEBF0FBE76
:1019E000CDBFCF91DF911F910F91FF90EF900895A0
:1019F000CF92DF92EF92FF920F931F93DF93CF93DB
:101A000000D0CDB7DEB7982FF62EE42ED22EC32EFF
:101A100080911604882309F4A8C080913E0289179A
:101A200011F081E0A5C0662329F490E4941710F426
:101A300088E09EC00E948C0C10910E04113049F079
:101A4000113028F0123009F08EC08CE091C089E08E
:101A50008FC080910F04882361F48CED9AE067E1D8
:101A600074E00E94AE0C882311F086E081C01093D0
:101A70000F040D2D1C2DECE4FE1681F1EF1538F04E
:101A8000FF2069F0FBE4FF1609F071C036C08EE458
:101A9000F81659F192E5F91609F069C039C0FF242A
:101AA00082E99AE0B801A7019E012F5F3F4F0E9493
:101AB000CF36882309F059C089819A818E159F05F8
:101AC00040F40E0D1F1D01501040F80180838EE080
:101AD0004FC0892B09F04BC08DE04AC080911D0496
:101AE000F801808380911E0406C080911B04F801D8
:101AF000808380911C0481833AC080911F0480FF01
:101B000004C081E0F801808332C0F80111822FC047
:101B100080911704F8018083809117049091180434
:101B2000A0911904B0911A04892F9A2FAB2FBB27CB
:101B300081838091170490911804A0911904B091A9
:101B40001A04CD01AA27BB278283809117049091A4
:101B50001804A0911904B0911A048B2F9927AA2771
:101B6000BB27838304C082E003C087E001C080E01C
:101B70000F900F90CF91DF911F910F91FF90EF90F9
:101B8000DF90CF9008951F93182F80E00E948C0C57
:101B900088EE93E024E131E0F9013197F1F7019704
:101BA000D9F7183040F488B3912F9295990F907E11
:101BB0008F71982B98BB8CE296E062E372E041E073
:101BC0000E94F31B882311F011E021C085E392E00D
:101BD0000E94F229882361F085E392E00E94782A2E
:101BE00085E392E00E94F229882351F011E00DC0B4
:101BF00083E392E00E94F22985E392E00E94F229B9
:101C000010933E021092350210E00E94A10C812F29
:101C10001F910895DF92EF92FF920F931F93182F59
:101C2000E62ED42EF22E80911604882349F4812FBB
:101C30000E94C30D882309F07AC081E080931604C6
:101C400080913E02811711F081E074C087E08F150A
:101C500010F483E06FC0812F0E948C0C88ECE81692
:101C600011F082E067C0802F90E002C0880F991FBA
:101C7000FA94E2F70D2D0823013089F0013030F09D
:101C80000530F1F0073089F184E054C082E99AE030
:101C90000E94033010920E0410920F0444C08091F1
:101CA0000E04882309F045C082E99AE06CED7AE0E1
:101CB00041E00E94DB348823E1F500930E0433C039
:101CC00080910E048823A9F582E99AE06CED7AE010
:101CD00048E00E94DB34882351F582E99AE06CEDFC
:101CE0007AE042E00E94DB3419C080910E04882320
:101CF00001F582E99AE06CED7AE042E00E94DB3483
:101D00008823A9F440919C0A50919D0A60919E0AF3
:101D100070919F0A82E99AE00E949521882339F404
:101D200082E080930E040E94A10C80E003C087E053
:101D300001C086E01F910F91FF90EF90DF90089512
:101D4000DF92EF92FF920F931F93DF93CF9300D018
:101D5000CDB7DEB7082F162FD42E7901683C41F499
:101D600068EC4FEF20E0F70100810E940A0EB2C03C
:101D700080911604882349F4802F0E94C30D882384
:101D800009F0A5C081E08093160480913E0280177F
:101D900011F081E09FC0112329F4F0E4FD1510F447
:101DA00088E098C00E948C0C80910E04813031F044
:101DB000813030F0823009F04FC03EC08AE08AC0E6
:101DC000103421F01834F1F089E084C0A0E0B0E0D4
:101DD0004D2D50E0F701EA0FFB1F8081882331F081
:101DE000A730B10519F0A417B50719F4A05DBB4FD2
:101DF00018C0FD01E05DFB4F80831196A830B1054E
:101E000049F72AC0A0E0B0E04D2D50E0F701EA0FFD
:101E1000FB1F8081882319F0A417B50721F4A35D67
:101E2000BB4F1C9219C0FD01E35DFB4F80831196EF
:101E3000A330B10559F710C0112311F082E04AC058
:101E400082E99AE0B7014D2D50E09E012F5F3F4F90
:101E50000E9421308823D9F50E94A10C80910E04A4
:101E60008823B9F520E030E0F901E05DFB4F808187
:101E7000882351F4E22F121664F520E030E04E2F53
:101E8000552747FD509510C02F5F3F4F2830310533
:101E900059F71FC0F901E452F54FD901A05DBB4FBE
:101EA0008C9180832F5F3F4F241735079CF3FA01F5
:101EB000E452F54F8EE2808380912D0481838091DE
:101EC0002E04828380912F048383148202C087E0D2
:101ED00001C080E00F900F90CF91DF911F910F9183
:101EE000FF90EF90DF9008950E944F40089588235F
:101EF00011F084E00895862FBA010E94743C089581
:101F00000F931F93882311F084E006C0CB01BA0120
:101F1000A90198010E94FC3B1F910F9108950F9316
:101F20001F93882311F084E006C0CB01BA01A901F8
:101F300098010E94A83B1F910F910895882311F0EA
:101F400081E008950E94423A0895882311F081E0CB
:101F500008950E94A53B0895FC01238130E040E0F4
:101F600050E0542F432F322F2227828190E0A0E0AF
:101F7000B0E0282B392B4A2B5B2B542F432F322FC9
:101F80002227818190E0A0E0B0E0282B392B4A2B5A
:101F90005B2B542F432F322F2227808190E0A0E02B
:101FA000B0E0282B392B4A2B5B2BB901CA010895CD
:101FB000CF93DF939C01FC014193BB27A72F962F62
:101FC000852FE9018983CB01AA27BB278183472F6E
:101FD0005527662777274283DF91CF910895EF92A7
:101FE000FF920F931F93FC01DB015B969C915B9723
:101FF00080E05A962C915A9730E0822B932B7C01EB
:1020000000E010E08081833091F455969C915597C3
:1020100080E054962C9130E0822B932BA0E0B0E02E
:10202000DC0199278827E82AF92A0A2B1B2BB701FC
:10203000C8011F910F91FF90EF900895CF93DF9308
:10204000FC01EB012A8F3B8F8081833029F4CA0188
:10205000AA27BB278C8B9D8BDF91CF9108950F937F
:102060001F93CF93DF93AC01EB011986FC018689A6
:102070009789A08DB18D0097A105B10509F444C0E1
:1020800080E090E0A0E0B0E03EE2FA01628D738D66
:10209000680F791FFB0120810196203281F02530E5
:1020A00009F425EE8930910529F4FE01EA0FFB1FA2
:1020B00031871196FE01EA0FFB1F218711968B30A5
:1020C000910519F7AC0FBD1F19961C92DA015A96AB
:1020D000ED91FC915B97838588875A960D911C91B1
:1020E0005B97C8014C960E94AC0F688379838A8302
:1020F0009B83C80146960E94AC0F7F836E83BC0110
:10210000882799277D836C83DF91CF911F910F9151
:102110000895CF93DF93EC01A881B981109701F165
:10212000FD0101C031968081813248F08A33D1F7B8
:102130008C9190E0C0978A30910590F405C0809111
:102140003E04282F30E00EC01196AE17BF0741F4B1
:102150008230910528F49C013196F983E88302C00E
:102160002FEF3FEFC901DF91CF910895DF93CF9318
:1021700000D0CDB7DEB79A838983CE0101960E9445
:10218000891097FF02C08BE003C080933E0480E07B
:102190000F900F90CF91DF9108952F923F924F9221
:1021A0005F926F927F928F929F92AF92BF92CF92E7
:1021B000DF92EF92FF920F931F93DF93CF93CDB7F0
:1021C000DEB7C854D0400FB6F894DEBF0FBECDBF07
:1021D0009A878987E62E49015A0126960FAF2697DE
:1021E00027961FAF2797CE0109960E9489106C0190
:1021F00097FF02C08BE0BCC5FC01EE0FFF1FE85C3F
:10220000FB4F0190F081E02D309709F01082CFA6AE
:102210008C2D0E949E0F80FF02C083E0A9C582FF23
:1022200002C08AE0A5C58C2D63E0AE014F5F5F4F11
:102230000E94770F8823F1F429813A814B815C81D8
:102240002115310541055105A9F0213000E830077D
:1022500000E0400700E0500768F4DA01C901019787
:10226000A109B10982239323A423B5230097A105D3
:10227000B10541F081E090E0A0E0B0E089839A836D
:10228000AB83BC8381149104A104B104A1F010E0DC
:10229000811612E0910610E0A10610E0B10608F4E4
:1022A00062C521E0821620E0920620E0A20621E02D
:1022B000B20608F058C5D501C4010197A109B109BA
:1022C00088219921AA21BB210097A105B10509F018
:1022D0004AC58F2D869590E02C01662477244FA265
:1022E00058A669A67AA6F9E0440C551C661C771C12
:1022F000FA95D1F74BA65CA66DA67EA641145104B3
:102300006104710409F431C58FA561E0AE014B5F32
:102310005F4F0E94770F882309F029C52E2D30E0EA
:1023200089010870107023961FAF0EAF2397E3FC4E
:1023300009C08FE390E0A0E0B0E08B8F9C8FAD8F61
:10234000BE8F04C01B8E1C8E1D8E1E8E6D817E81E5
:102350008F8198854B8C5C8C6D8C7E8C641575059B
:102360008605970508F401C57B018C01E418F50882
:10237000060917092196ECAEFDAE0EAF1FAF2197EF
:10238000D801C70180389105A105B10508F4EDC455
:1023900065015401E9E0D694C794B794A794EA95EF
:1023A000D1F791E8A916B104C104D10408F0DBC447
:1023B000D901A270B070BCAFABAF21FF07C0C9019B
:1023C00087709070029739F020FF05C020FFCBC4C2
:1023D000B2E0B8AB02C0E3E0E8AB21964CAC5DAC38
:1023E0006EAC7FAC219771E17694679457944794D3
:1023F0007A95D1F74F86588A698A7A8A21966CAC89
:102400007DAC8EAC9FAC21976CE0969487947794CA
:1024100067946A95D1F76B867C868D869E868981C6
:102420009A81AB81BC818C019D01015010402040FC
:1024300030400FAB18AF29AF3AAF22273327A9019D
:10244000281B390B4A0B5B0B2BAB3CAB4DAB5EAB8C
:1024500038A9333009F070C002C043E048ABA11482
:10246000B104C104D10429F0ABA2BCA2CDA2DEA26A
:1024700027C0ECE8F2E081E090E0A0E0B0E08BA3C0
:102480009CA3ADA3BEA30CC04BA05CA06DA07EA07E
:10249000440C551C661C771C4BA25CA26DA27EA24C
:1024A00080819181009761F03296A0E0B0E06F8466
:1024B000788889889A88681679068A069B0620F7A4
:1024C00021966CAD7DAD8EAD9FAD21972BA13CA12A
:1024D0004DA15EA10E94D04B79018A01D801C701AC
:1024E000865F9F4FA040B04080509040AF4FBF40AC
:1024F00008F03BC41701280142E0220C331C441CA5
:10250000551C4A95D1F787E092E0A0E0B0E0280E94
:10251000391E4A1E5B1E39E056944794379427941F
:102520003A95D1F720E2E22EF12C012D112D1B8AD4
:102530001C8A1D8A1E8A89C0A114B104C104D10459
:1025400029F0ABA2BCA2CDA2DEA228C0EAE9F2E04B
:1025500091E0492E512C612C712C4BA25CA26DA2F2
:102560007EA20CC06BA07CA08DA09EA0660C771CE8
:10257000881C991C6BA27CA28DA29EA28081918155
:10258000009761F03296A0E0B0E0EB84FC840D850A
:102590001E85E816F9060A071B0720F721966CAD81
:1025A0007DAD8EAD9FAD21972BA13CA14DA15EA12C
:1025B0000E94D04BC901DA01863F0FE0900700E08E
:1025C000A00700E0B00758F09C01AD012E5F3F4F1F
:1025D0004F4F5F4F220F331F441F551F18C09C01E0
:1025E000AD01220F331F441F551F280F391F4A1FEB
:1025F0005B1F2F5F3F4F4F4F5F4F56954795379566
:1026000027952D5F3F4F4F4F5F4F11E018ABFFEF06
:102610002F2EF1E03F2E412C512C220E331E441E52
:10262000551EE9E05694479437942794EA95D1F7DC
:1026300071E0E72EF12C012D112D20E230E040E079
:1026400050E02B8B3C8B4D8B5E8B8B8D9C8DAD8DA1
:10265000BE8D8E0D9F1DA01FB11F8F8B988FA98FD0
:10266000BA8F2B893C894D895E89220D331D441D0B
:10267000551D280F391F4A1F5B1F8FA998ADA9ADA3
:10268000BAAD820F931FA41FB51F6BA87CA88DA89D
:102690009EA886219721A821B921821B930BA40B08
:1026A000B50B68A9633089F4E80EF91E0A1F1B1FD9
:1026B0006F88788C898C9A8C680E791E8A1E9B1E76
:1026C0006F8A788E898E9A8E04C0280E391E4A1E13
:1026D0005B1E8BA19CA1ADA1BEA164E0880F991FD8
:1026E000AA1FBB1F6A95D1F76B8C7C8C8D8C9E8C3E
:1026F00086199709A809B909820F931FA41FB51F4E
:1027000021962CAD3DAD4EAD5FAD21972817390711
:102710004A075B0708F429C3CA01B9016E197F098A
:10272000800B910B62197309840995096B887C8869
:102730008D889E8866197709880999092BA13CA183
:102740004DA15EA10E94D04B39014A0128A9233036
:10275000F9F436EF63163FEF730630E0830630E09E
:10276000930608F07EC0A114B104C104D10409F09D
:10277000FCC2ABA0BCA0CDA0DEA0D694C794B794F9
:10278000A794A114B104C104D10409F068CEEDC22C
:1027900048A9423009F058C056EF65165FEF75063C
:1027A00050E0850650E0950680F1A114B104C10403
:1027B000D10481F48BA19CA1ADA1BEA1880F991F6A
:1027C000AA1FBB1F81349105A105B10518F45C0156
:1027D0006D01B2CE8BAD9CAD892B09F03ECEA1141C
:1027E000B104C104D10409F0C0C2ABA0BCA0CDA00B
:1027F000DEA0AA0CBB1CCC1CDD1C91E8A916B10400
:10280000C104D10408F498CEB0C2A6EF6A16AFE0B6
:102810007A06A0E08A06A0E09A0618F5A114B10491
:10282000C104D10409F0A1C2ABA0BCA0CDA0DEA020
:10283000AA0CBB1CCC1CDD1CB1E8AB16B104C10456
:10284000D10408F479CE91C2E8A9E13051F4F6EF51
:102850006F16FFE07F06F0E08F06F0E09F0608F0BD
:1028600084C29BA1610124964FAE249725965FAE4A
:1028700025972696AFAC26972796BFAC279721962B
:102880002CAD3DAD4EAD5FAD21972D833E834F8383
:102890005887F501A50140505E4F29965FAF4EAFB6
:1028A000299711922996AEADBFAD2997EA17FB077C
:1028B000C1F7D501EFE3F2E081918D9322E0EA3494
:1028C000F207D1F7D5011B961C921B9782E01C964C
:1028D0008C931C971D969C931D971E96EC921E97A9
:1028E0001F96FC921F9781E050968C93F50171968C
:1028F000B8A9B33019F080E092E002C080E090E027
:10290000808391834D815E816F8178854030E0E0E6
:102910005E07E1E06E07E0E07E0738F4D5015396EC
:102920004C93539754965C9304C0C50180960E94C3
:10293000D80F88EFF501858B8FE3808F118E8FEF95
:10294000828F138EC5014C964B8D5C8D6D8D7E8D67
:102950000E94D80FF8A9F33009F048C0C5018D5B7B
:102960009F4F40E050E061E278E40E94D80FC5013B
:102970008496A60124966FAD249725967FAD259762
:102980000E94D80FC5018C9642E050E060E070E0F4
:102990000E94D80F81E0D501D0968C93D097D19624
:1029A0001C92D19786E0D2968C93D297D3961C92A4
:1029B000E0E4F0E0AE0EBF1E80E8D5018C93E2E0CB
:1029C000F0E0AE0EBF1E89E2D5018C93EEEBFFEF77
:1029D000AE0EBF1ED501A95BBF4FEBE4F2E08191C3
:1029E0008D9302E0EE35F007D1F720C0C501879640
:1029F00040E050E061E278E40E94D80FD50156969D
:102A0000CC9256975796DC92579780E894968C9381
:102A1000949789E296968C9396979B96EFE5F2E0D1
:102A200081918D9302E0E237F007D1F795012250B2
:102A30003E4F3AAB29AB85E5D9018C938AEA1196D2
:102A40008C938FA5B5012B8D3C8D4D8D5E8D01E056
:102A500010E00E94800F882309F089C1B8A9B33023
:102A600009F05BC02B8D3C8D4D8D5E8D2A5F3F4FF5
:102A70004F4F5F4F8FA5B5010E94800FF501119256
:102A80002996EEACFFAC2997EE15FF05C1F7C501FD
:102A900042E552E561E671E40E94D80FC5018C5110
:102AA0009E4F42E752E761E471E60E94D80F089416
:102AB0006108710881089108C50188519E4FB401D1
:102AC000A3010E94D80FC50184519E4F42E050E0FF
:102AD00060E070E00E94D80F85E5A9A9BAA98C939F
:102AE0008AEA11968C932B8D3C8D4D8D5E8D295FDE
:102AF0003F4F4F4F5F4F8FA5B50101E010E00E949F
:102B0000800F2B8D3C8D4D8D5E8D2F5F3F4F4F4F36
:102B10005F4F8FA5B5010E94800F8BA59CA5F50185
:102B200011920197E9F7B8A9B330B1F4C50148EFA4
:102B30005FEF6FEF7FEF0E94D80FC50104964FEF54
:102B40005FEF6FEF7FEF0E94D80FC50108964FEF40
:102B50005FEF6FEF7FE00DC0E8A9E13029F048EFAB
:102B60005FEF6FEF7FEF04C048EF5FEF6FEF70E054
:102B7000C5010E94D80F6F88788C898C9A8C6F8ED3
:102B800078A289A29AA242013101740163010FA1C6
:102B900018A529A53AA5061517052805390510F425
:102BA000680179018FA5B5012F8D38A149A15AA1DE
:102BB00086010E94800F882309F0D9C0F501119287
:102BC00029962EAD3FAD2997E217F307C1F78F8DF8
:102BD00098A1A9A1BAA18C0D9D1DAE1DBF1D8F8FFF
:102BE00098A3A9A3BAA36C187D088E089F0869F65C
:102BF00098A9933029F0CB88DC88ED88FE8804C042
:102C0000CBA0DCA0EDA0FEA0360147010FA118A5C6
:102C100029A53AA50C151D052E053F0510F4380110
:102C200049018FA5B5012F8D38A149A15AA1830172
:102C30000E94800F882309F09AC0C618D708E808B8
:102C4000F90869F02F8D38A149A15AA1260D371D29
:102C5000481D591D2F8F38A349A35AA3D5CF38A992
:102C6000333011F49CE011C08D819E81AF81B88515
:102C700080509040A140B04010F096E006C058A9A6
:102C8000523011F091E001C094E02396AEADBFAD9B
:102C90002397AB2B09F05EC0F501119229964EAC3B
:102CA0005FAC2997E415F505C1F785E5A9A9BAA98F
:102CB0008C938AEA11968C93AEEBCA2EA1E0DA2EA1
:102CC000CA0CDB1CF601108281E0818382831382AF
:102CD00094836D817E818F8198854B8C5C8C6D8C0B
:102CE0007E8C640D751D861D971D21EC3EE340E032
:102CF00050E00E94D04B79018A018EEFD6011596E3
:102D00008C93D801C701F2E0B695A7959795879562
:102D1000FA95D1F78F63F60186832783C60108965B
:102D20004B8D5C8D6D8D7E8D0E94D80F4D815E81A7
:102D30006F817885C6010C960E94D80F8FA5B501CA
:102D400020E030E040E050E001E010E00E94800F21
:102D5000882369F48FA560E040E050E00E94770F7F
:102D6000882331F004C083E103C08EE001C081E01C
:102D7000C85BDF4F0FB6F894DEBF0FBECDBFCF915B
:102D8000DF911F910F91FF90EF90DF90CF90BF9058
:102D9000AF909F908F907F906F905F904F903F90FB
:102DA0002F9008958F929F92AF92BF92CF92DF9211
:102DB000EF92FF920F931F93CF93DF93EC018B81E0
:102DC0008823C1F1B3E3CB2ED12CCC0EDD1E2FA571
:102DD00038A949A95AA98981B60101E010E00E94E9
:102DE000800F882311F081E026C01B82EFA4F8A891
:102DF00009A91AA92B8D3C8D4D8D5E8D8BA19CA1AF
:102E0000ADA1BEA147015801881A990AAA0ABB0AB6
:102E100082169306A406B50668F48A81823051F4BE
:102E20002E0D3F1D401F511F8981B60101E010E0AA
:102E30000E94800F80E0DF91CF911F910F91FF9052
:102E4000EF90DF90CF90BF90AF909F908F900895BC
:102E50008F929F92AF92BF92CF92DF92EF92FF92AA
:102E60000F931F93CF93DF93EC017A018B010E94A4
:102E7000D216882309F059C08EEF9FEFAFEFBFEF56
:102E8000E80EF91E0A1F1B1F8F89988DA98DBA8D18
:102E90000297A109B109E816F9060A071B0720F0F5
:102EA000CC24DD24760112C029853A8540E050E02B
:102EB000C801B7010E948A4B6B017C018BA59CA5C0
:102EC000ADA5BEA5C80ED91EEA1EFB1ECFA6D8AA68
:102ED000E9AAFAAA13E3812E912C8C0E9D1EF4010F
:102EE00080E092E011920197E9F7AA24BB2403C085
:102EF0000894A11CB11C89859A85A816B90678F496
:102F0000950140E050E02C0D3D1D4E1D5F1D898157
:102F1000B40101E010E00E94800F882349F320E013
:102F200089859A85A816B90609F021E0822FDF91DC
:102F3000CF911F910F91FF90EF90DF90CF90BF90B6
:102F4000AF909F908F9008950F931F93CF93DF932F
:102F5000EC010E94D216882309F056C08881833084
:102F600009F04AC08C81813009F046C08E010D5CA9
:102F70001F4FF80180E092E011920197E9F7CF5CD2
:102F8000DD4F85E589938AEA8883C253D240C80120
:102F900042E552E561E671E40E94D80FCE01895EF8
:102FA0009D4F42E752E761E471E60E94D80F4F85DA
:102FB000588969897A89CE01855E9D4F0E94D80F14
:102FC0004B855C856D857E85CE01815E9D4F0E941F
:102FD000D80F2F8D38A149A15AA12F5F3F4F4F4FD6
:102FE0005F4F2FA738AB49AB5AAB8981B80101E0DD
:102FF00010E00E94800F1C82898160E040E050E078
:103000000E94770F811181E0DF91CF911F910F9185
:1030100008950F931F93CF93DF93EC018B010097DB
:1030200099F0E881F981309779F08081882361F007
:103030002A813B81858196812817390729F481816E
:103040000E94A50F80FF0CC080E090E029E0F8010D
:1030500091838083822FDF91CF911F910F910895EB
:103060008881998120E0F3CF0F931F93DF93CF9353
:1030700000D0CDB7DEB78C01BE016F5F7F4F0E94DD
:103080000918882319F4F801118210820F900F900B
:10309000CF91DF911F910F910895AF92BF92CF9280
:1030A000DF92EF92FF920F931F93DF93CF930F92D4
:1030B000CDB7DEB75C016A017B01FC0187A590A951
:1030C000A1A9B2A9481759076A077B0711F490E034
:1030D0001FC0C5010E94D216982F8823C9F4B501DC
:1030E0006D5C7F4FF5018181A701960101E010E041
:1030F00099830E948F0F9981882329F0CC24CA9448
:10310000DC2C760191E0F501C7A6D0AAE1AAF2AACB
:10311000892F0F90CF91DF911F910F91FF90EF902A
:10312000DF90CF90BF90AF900895CF93DF93EC01E5
:103130001B828FEF9FEFAFEFBFEF8FA798ABA9ABCD
:10314000BAABCE010E944D18882311F084E042C032
:10315000CE5CDD4F988180E02A91C153D24030E0AF
:10316000822B932B85559A4A11F083E033C08BA9AB
:10317000893E29F08B3E69F58DA9803951F5DE0134
:10318000A759BF4FE3E7F2E08D91282F30E08191FE
:10319000281B310982E0E637F80719F0232BA1F349
:1031A00002C0232BA1F0DE01AB57BF4FE7E7F2E0EF
:1031B0008D91282F30E08191281B310982E0EC3776
:1031C000F80719F0232BA1F304C0232B11F480E09E
:1031D00001C082E0DF91CF9108953F924F925F92BC
:1031E0006F927F928F929F92AF92BF92CF92DF9217
:1031F000EF92FF920F931F93DF93CF93CDB7DEB77C
:1032000068970FB6F894DEBF0FBECDBF6B01B42E2A
:10321000DB011D921C920E9489107C0197FF02C065
:103220008BE0C9C2FC01EE0FFF1FE85CFB4F008181
:1032300011810115110511F48CE0BDC2F601118355
:1032400000839EEFD92EDB20D8018C91882361F07A
:1032500011968C910E94A50F80FD06C0DD2009F417
:10326000A7C282FDA3C2A4C2F8011082E1828E2D02
:103270000E949E0F80FF02C083E09DC2DD2011F0FE
:1032800082FD94C2C80140E050E060E070E00E941E
:103290009518823029F01D8A1E8A1F8A188E54C004
:1032A0006E010894C11CD11C56018EEBE82E81E002
:1032B000F82E23E330E0E20EF31EF801EE0DFF1DC1
:1032C0008DEC9FEFE80EF91E8481882329F460E0DD
:1032D00070E080E090E004C0CF0108960E94AC0F3F
:1032E000D5016D937D938D939D935D01E0E1F0E0B9
:1032F000EE0EFF1EFEEFEF16F1E0FF06D1F6B1E194
:10330000EB2EF12CEC0EFD1ED6018D919D910D90B2
:10331000BC91A02D8D8B9E8BAF8BB88F0097A10594
:10332000B10511F483E009C0C8014D895E896F8938
:10333000788D0E949518823070F0E4E0F0E0CE0EB7
:10334000DF1ECE14DF0401F7843011F481E033C2B4
:10335000823008F02FC2D801DF969C91DF9780E081
:10336000DE962C9130E0822B932B8050924009F016
:1033700021C2065B1F4FF801908180E0D8012E9199
:103380008D010954104030E0822B932B2C016624D0
:103390007724411451046104710439F4C801895A35
:1033A0009F4F0E94AC0F2B013C01F801438E548EBD
:1033B000658E768E0D5B1F4FD8013C9003541040F4
:1033C000F8013282832D8150823008F0F3C1005C15
:1033D0001F4FD8018C9100541040282F30E0F80185
:1033E000328721872115310509F4E4C1C90101970C
:1033F00082239323892B09F0DDC10B5B1F4FD8017A
:103400009C9180E0F80122918F0104541040C22E5B
:10341000DD24C82AD92AD8011896DC92CE921797B3
:10342000C6018F709070892B09F0C4C1095B1F4FD2
:10343000F801908180E0D8012E918D010654104052
:1034400030E0822B932B4C01AA24BB2481149104DD
:10345000A104B10439F4C8018D5A9F4F0E94AC0FEA
:103460004B015C010E5B1F4FF801908180E0D80199
:103470002E918D0101541040E22EFF24E82AF92AF2
:10348000E114F10409F496C1232D30E040E050E04E
:10349000C301B2010E948A4B698B7A8B8B8B9C8B08
:1034A000270166247724A4E0D694C794AA95E1F76F
:1034B000EE24FF24C40CD51CE61CF71CC60ED71E38
:1034C000E81EF91E8C149D04AE04BF0408F472C1FA
:1034D0008C189D08AE08BF08F8012185328540E0B0
:1034E00050E0C501B4010E94D04BC901DA01009738
:1034F000A105B10509F45EC1863FFFEF9F07FFEF0D
:10350000AF07FFE0BF0708F055C1863F2FEF9207D6
:1035100020E0A20720E0B20718F0F3E03F2E0DC034
:10352000863F3FE0930730E0A30730E0B30718F48D
:103530003324339402C0E2E03E2E72E0872E912CB9
:10354000A12CB12C880E991EAA1EBB1ED80157961D
:103550008D929D92AD92BC925A978D899E89AF892A
:10356000B88DF801878F90A3A1A3B2A39C01AD01F0
:10357000240D351D461D571DD80193962D933D935F
:103580004D935C9396978D899E89AF89B88DC80EAF
:10359000D91EEA1EFB1ED8019B96CD92DD92ED92BC
:1035A000FC929E97B3E03B1661F5025A1F4FF8015B
:1035B000908180E0D8012E918D010D55104030E0B2
:1035C000822B932B892B09F0F5C0F8018781908518
:1035D000892B09F0EFC0C801815A9F4F0E94AC0FA0
:1035E000D80197966D937D938D939C939A97A5019F
:1035F000940162E0220F331F441F551F6A95D1F7D3
:1036000037C0F80187819085892B09F4D3C0898957
:103610009A89AB89BC89280F391F4A1F5B1FD801C3
:1036200097962D933D934D935C939A97D501C40142
:10363000880F991FAA1FBB1FE2E03E1619F49C01D8
:10364000AD0116C09C01AD01280D391D4A1D5B1D41
:10365000569547953795279581E090E0A0E0B0E03A
:1036600088229922AA22BB22280D391D4A1D5B1DE2
:1036700021503E4F4F4F5F4F89E056954795379504
:1036800027958A95D1F7F801838D948DA58DB68DF8
:1036900082179307A407B50708F48CC08FEF9FEF3C
:1036A000AFEFBFEF8787908BA18BB28B8387948717
:1036B000A587B68780E88483F3E03F1609F061C0F0
:1036C0000C591F4FD8019C9180E0F80122918F0185
:1036D0000356104030E0822B932B019709F051C024
:1036E0008D899E89AF89B88D0196A11DB11D8D8BE5
:1036F0009E8BAF8BB88FC8014D895E896F89788D9D
:103700000E944D18882309F03CC0D80114961C92E1
:103710000E5C1D4FF801908180E0D8012E918D0143
:103720000153124030E0822B932B85559A4A49F57C
:10373000C801C3960E94AC0F625572458146914400
:1037400001F5C801895E9D4F0E94AC0F6257724718
:1037500081449146B1F4C801855E9D4F0E94AC0F33
:10376000D8011F966D937D938D939C935297C801BA
:10377000815E9D4F0E94AC0FF80163877487858737
:103780009687D8013C9280913C0490913D0401962B
:1037900090933D0480933C0416969C938E931597CA
:1037A000F801138A148A158A168A02C08AE003C0B7
:1037B00080E001C08DE068960FB6F894DEBF0FBEC2
:1037C000CDBFCF91DF911F910F91FF90EF90DF90D0
:1037D000CF90BF90AF909F908F907F906F905F90B1
:1037E0004F903F9008951F93DF93CF9300D000D068
:1037F00000D0CDB7DEB79C838B837E836D83142F7F
:103800007A836983CE0101960E948910DC0197FFBB
:1038100002C08BE022C0FC01EE0FFF1FE85CFB4FF3
:103820000190F081E02D309709F01082EB81FC814E
:10383000309709F01082AA0FBB1FA85CBB4FED9315
:10384000FC93112311F480E008C0CE010596BE015F
:103850006D5F7F4F40E00E94ED1826960FB6F894FA
:10386000DEBF0FBECDBFCF91DF911F910895BF92F4
:10387000CF92DF92EF92FF920F931F93CF93DF933C
:10388000FC017A018B01C081D18142305105610573
:10389000710508F4B3C08F89988DA98DBA8D48172A
:1038A00059076A077B0708F0A9C08881823009F4AC
:1038B0005AC0833009F47CC0813009F09FC06A018E
:1038C000D694C794C40ED51EA601452F55274695FC
:1038D00060E070E08BA19CA1ADA1BEA1480F591F73
:1038E0006A1F7B1FCE010E944D18882309F08BC0F0
:1038F000F601F170EC0FFD1FB3A80894C11CD11C98
:10390000A601452F5527469560E070E08BA19CA14C
:10391000ADA1BEA1480F591F6A1F7B1FCE010E9497
:103920004D18882309F06FC06B2D70E08FEF91E088
:10393000C822D922CC0DDD1D9BA980E0682B792BF4
:10394000C70181709070892B39F0B4E07695679546
:10395000BA95E1F79B0129C09B0140E050E03F7020
:103960004070507054C0452F562F672F77278BA17A
:103970009CA1ADA1BEA1480F591F6A1F7B1FCE019C
:103980000E944D18882309F03EC0EE0CFF1C001F5A
:10399000111FC7019170FE01E80FF91F34A920E043
:1039A00083A990E0822B932B9C0140E050E02FC034
:1039B000E7E07695679557954795EA95D1F78BA1FE
:1039C0009CA1ADA1BEA1480F591F6A1F7B1FCE014C
:1039D0000E944D188823B9F452E0EE0CFF1C001F22
:1039E000111F5A95D1F7C7019170C3968C0F9D1F77
:1039F0000E94AC0F9B01AC015F7009C021E030E078
:103A000040E050E004C02FEF3FEF4FEF5FEFB90110
:103A1000CA01DF91CF911F910F91FF90EF90DF903E
:103A2000CF90BF9008952F923F924F925F926F92E6
:103A30007F928F929F92AF92BF92CF92DF92EF923E
:103A4000FF920F931F93CF93DF932C013A014B0109
:103A5000FC01C081D1814030F0E05F07F0E26F07E8
:103A6000F0E07F0708F0D8C0DB01CA018F719070C9
:103A7000A070B0700097A105B10509F0CDC0F201AA
:103A800046875787608B718BE680F78000851185AC
:103A9000E114F1040105110551F58881833040F0EE
:103AA0008FA198A5A9A5BAA50097A105B105E9F42C
:103AB000A4019301F5E05695479537952795FA951A
:103AC000D1F78F819885A0E0B0E0281739074A0721
:103AD0005B0708F0A1C08FA198A5A9A5BAA5F2011E
:103AE000868B978BA08FB18F6FC07C018D018985EC
:103AF0009A855C01CC24DD24E9E0AA0CBB1CCC1C1B
:103B0000DD1CEA95D1F7120126C0C101B801A70159
:103B10000E94371C7B018C016F3FFFEF7F07FFEF97
:103B20008F07FFEF9F0711F481E077C082E0E8166E
:103B3000F1040105110508F46FC08F89988DA98DD6
:103B4000BA8DE816F9060A071B0708F065C06A185F
:103B50007B088C089D086A147B048C049D04A8F6DD
:103B60007EEFA72E7FEFB72E7FEFC72E7FEFD72EEA
:103B7000AE0CBF1CC01ED11E8F89988DA98DBA8D29
:103B80000297A109B109A816B906CA06DB0628F0F2
:103B900020E030E040E050E012C029853A8540E066
:103BA00050E0C601B5010E948A4B9B01AC018BA578
:103BB0009CA5ADA5BEA5280F391F4A1F5B1FF201AA
:103BC000268B378B408F518FF201E28AF38A048B68
:103BD000158B26893789408D518D21153105410579
:103BE0005105D1F0D401C30169E0B695A795979529
:103BF00087956A95D1F7820F931FA41FB51F868BF7
:103C0000978BA08FB18FC3019170C396C80FD91F36
:103C1000D38FC28F80E001C082E0DF91CF911F91EE
:103C20000F91FF90EF90DF90CF90BF90AF909F905B
:103C30008F907F906F905F904F903F902F9008955E
:103C40007F928F929F92AF92BF92CF92DF92EF922C
:103C5000FF920F931F93CF93DF93EC016A017B01D7
:103C600048015901423051056105710508F4DFC072
:103C70008F89988DA98DBA8D481759076A077B07D8
:103C800008F0D5C08881823009F472C0833009F40D
:103C900091C0813009F0CBC08A0116950795040FB9
:103CA000151FA801452F5527469560E070E08BA1B0
:103CB0009CA1ADA1BEA1480F591F6A1F7B1FCE0159
:103CC0000E944D18782E882309F0B3C0D801B17036
:103CD0000F5F1F4F91E0C922DD24C114D10451F0C0
:103CE000FE01EA0FFB1F83A98F70982D9295907F9C
:103CF000982B01C0982DAC0FBD1FD3969C9381E0EB
:103D00008B83A801452F5527469560E070E08BA175
:103D10009CA1ADA1BEA1480F591F6A1F7B1FCE01F8
:103D20000E944D18782E882309F083C03FEFE32EC0
:103D300031E0F32EE022F122CD2849F024E0B694C0
:103D4000A794979487942A95D1F7E82D0BC0FE018C
:103D5000EE0DFF1DE3A9E07FBB27AB2D9A2D892D2A
:103D60008F70E82BEC0EFD1ED701D396EC935CC050
:103D7000452F562F672F77278BA19CA1ADA1BEA100
:103D8000480F591F6A1F7B1FCE010E944D18782EC5
:103D9000882309F04EC0CC0CDD1CEE1CFF1CF60184
:103DA000F170DE01AE0FBF1FD3968C92D397FD0149
:103DB00094AA3AC017E076956795579547951A9556
:103DC000D1F78BA19CA1ADA1BEA1480F591F6A1FBD
:103DD0007B1FCE010E944D18782E882351F58FEF5E
:103DE0009FEFAFEFBFE088229922AA22BB22B2E068
:103DF000CC0CDD1CEE1CFF1CBA95D1F786011170AE
:103E00000D5C1F4F0C0F1D1FC8010E94AC0F60708E
:103E100070708070907F862A972AA82AB92AC801D4
:103E2000B501A4010E94D80F81E08B8302C0A2E0FB
:103E30007A2E872DDF91CF911F910F91FF90EF90F8
:103E4000DF90CF90BF90AF909F908F907F9008951C
:103E50004F925F926F927F928F929F92AF92BF929A
:103E6000CF92DF92EF92FF920F931F93CF93DF9346
:103E70008C012A013B01FC01C081D1814115510512
:103E80006105710599F48B849C84AD84BE84811492
:103E90009104A104B10451F18F89988DA98DBA8D37
:103EA00088169906AA06BB0608F525C00E94371C8D
:103EB0009B01AC01623071058105910508F4EEC0EB
:103EC0006F3FFFEF7F07FFEF8F07FFEF9F0709F4BB
:103ED000F3C08F89988DA98DBA8D281739074A07A5
:103EE0005B0708F4E9C05301420105C0B1E08B2E25
:103EF000912CA12CB12C8F859889A989BA8900971A
:103F0000A105B10509F4D4C084149504A604B7042E
:103F100009F04AC0750164010894C11CD11CE11C60
:103F2000F11C8F89988DA98DBA8DC816D906EA061D
:103F3000FB0628F0A2E0CA2ED12CE12CF12CC801FE
:103F4000B701A6010E94371C9B01AC0161307105CD
:103F50008105910509F4B0C02F3F8FEF38078FEF2F
:103F600048078FEF580709F4A7C02115310541050F
:103F70005105A9F02B853C854D855E8522303105A4
:103F80004105510588F08F89988DA98DBA8D281724
:103F900039074A075B0740F449015A0105C0C114BB
:103FA000D104E104F104E9F5750164010894C11C30
:103FB000D11CE11CF11C8F89988DA98DBA8DC81672
:103FC000D906EA06FB0660F0E2E08E169104A10431
:103FD000B10408F46DC0F2E0CF2ED12CE12CF12C0D
:103FE000C801B701A6010E94371C9B01AC016115F5
:103FF000710581059105A9F0613071058105910573
:1040000009F45AC06F3FFFEF7F07FFEF8F07FFEF05
:104010009F0709F451C0C814D904EA04FB0431F61F
:1040200047C0CE01B701A6010FEF1FEF2FEF3FEF03
:104030000E94201E882381F54114510461047104FB
:1040400049F0CE01B301A201970186010E94201E12
:10405000882311F5CB86DC86ED86FE862F85388990
:1040600049895A898F89988DA98DBA8D0297A1099E
:10407000B10982179307A407B50740F021503040DB
:10408000404050402F87388B498B5A8B8C81816000
:104090008C83A701960110C0813029F021E030E027
:1040A00040E050E009C02FEF3FEF4FEF5FEF04C05B
:1040B00020E030E040E050E0B901CA01DF91CF914B
:1040C0001F910F91FF90EF90DF90CF90BF90AF9036
:1040D0009F908F907F906F905F904F9008956F9218
:1040E0007F928F929F92AF92BF92CF92DF92EF9288
:1040F000FF920F931F93CF93DF93EC013B01C88096
:10410000D9802E853F8548895989EE88FF88088D9A
:10411000198DE114F1040105110509F4F2C0E0E282
:104120008E2E912CA12CB12C820E931EA41EB51E96
:1041300080E0881680E0980680E2A80680E0B80655
:1041400008F0DFC0D501C4019170A070B070009775
:10415000A105B10509F0C8C00894E11CF11C011DBE
:10416000111DEE8AFF8A088F198FEA88FB880C8957
:104170001D89E114F10401051105B1F4A5019401B3
:1041800075E056954795379527957A95D1F7D601DD
:1041900017968D919C911897A0E0B0E028173907E9
:1041A0004A075B07E0F5A0C0F6018185928501977B
:1041B000A0E0B0E0A501940169E0569547953795D8
:1041C00027956A95D1F782239323A423B5230097DB
:1041D000A105B10509F088C0CE01B801A7010E9470
:1041E000371C7B018C01623071058105910508F453
:1041F0008AC08FEFE8168FEFF8068FEF08078FEF72
:10420000180709F482C0F6018789908DA18DB28DBF
:10421000E816F9060A071B0778F1672829F41E8AB1
:104220001F8A188E198E6DC04A895B896C897D89B9
:10423000CE010E94281F7B018C016115710581054B
:10424000910511F487E062C0613071058105910527
:1042500009F459C08FEFE8168FEFF8068FEF0807C3
:104260008FEF180709F451C0C601B801A7010E94D9
:104270002817882309F049C0EA8AFB8A0C8B1D8B1A
:104280008EEF9FEFAFEFBFEFE80EF91E0A1F1B1F67
:10429000F6018789908DA18DB28D0297A109B10990
:1042A000E816F9060A071B0728F020E030E040E096
:1042B00050E016C0D60119962D913C911A9740E016
:1042C00050E0C801B7010E948A4B9B01AC01F60186
:1042D00083A594A5A5A5B6A5280F391F4A1F5B1F66
:1042E0002E8B3F8B488F598F8E869F86A88AB98ADE
:1042F000C4019170C396C80ED91EDB8ECA8E80E0B1
:1043000005C084E003C082E001C081E0DF91CF916D
:104310001F910F91FF90EF90DF90CF90BF90AF90E3
:104320009F908F907F906F9008952F923F924F9221
:104330005F926F927F928F929F92AF92BF92CF9235
:10434000DF92EF92FF920F931F93DF93CF93CDB73E
:10435000DEB727970FB6F894DEBF0FBECDBF6C0156
:104360007A018B018F832D2CBE016F5F7F4F0E94DE
:104370000918382E882309F0AFC1D6011F963C904A
:104380001F97332009F0A8C11A968D909D90AD908B
:10439000BC901D978E149F04A006B10620F41E96B3
:1043A0008C9181FF02C047015801F60120893189B3
:1043B00042895389D60150961D921D921D921C92DE
:1043C000539781149104A104B10409F44BC1E9810C
:1043D000FA81818592852C016624772419E0440CAA
:1043E000551C661C771C1A95D1F72115310541051E
:1043F000510509F43FC0DA01C9010197A109B109CA
:104400008B839C83AD83BE83C501B4016150704032
:1044100080409040A30192010E94D04B79018A0113
:104420006B817C818D819E81A30192010E94D04B82
:10443000E216F30604071507E8F088279927DC0140
:1044400084199509A609B7092B813C814D815E81AC
:1044500082239323A423B523F601808B918BA28B17
:10446000B38B881A990AAA0ABB0A448955896689B6
:10447000778931C0D60116964D915D916D917C91F1
:1044800019974115510561057105F1F48F81922D40
:1044900040E050E060E070E00E94281FAB01BC01EA
:1044A000413051056105710509F460C04F3FFFEFD0
:1044B0005F07FFEF6F07FFEF7F0709F440C0F601CA
:1044C0004683578360877187D60154964D935D93D9
:1044D0006D937C935797411551056105710509F05E
:1044E00055C0C0C0F60180899189A289B389840D25
:1044F000951DA61DB71D808B918BA28BB38B8685D6
:1045000081FF0FC08F81922D0E94281FAB01BC013B
:10451000411551056105710551F488249924540110
:1045200042C08F81922D0E94371CAB01BC014F3FCE
:10453000FFEF5F07FFEF6F07FFEF7F0739F481E0C1
:10454000D6011F968C9333243394C6C04230510554
:104550006105710558F0E981FA818789908DA18DF7
:10456000B28D481759076A077B0720F082E0F601F1
:10457000878767C08E0C9F1CA01EB11ED601549663
:104580004D935D936D937C93579707C0EE24FF2462
:104590008701E418F50806091709481459046A0444
:1045A0007B0408F49FCFF60180899189A289B389A1
:1045B000880D991DAA1DBB1D808B918BA28BB38B7F
:1045C000D501C4019170A070B0700097A105B1052C
:1045D00009F448C069807A80BEEFEB2EBFEFFB2E56
:1045E000BFEF0B2FBFEF1B2FE40EF51E061F171F8B
:1045F000F3018789908DA18DB28D0297A109B10930
:10460000E816F9060A071B07C0F42185328540E049
:1046100050E0C801B7010E948A4B9B01AC01F30135
:1046200083A594A5A5A5B6A5280F391F4A1F5B1F12
:10463000211531054105510539F482E0D6011F9657
:104640008C93A2E03A2E48C085017401F9E01695DA
:104650000795F794E794FA95D1F7E20EF31E041F3D
:10466000151F03C0EE24FF248701F601208931893C
:104670004289538982859385A485B58582179307DE
:10468000A407B50768F4D6011A962D933D934D9370
:104690005C931D971E968C911E9780641E968C933A
:1046A000F60180899189A289B3899170A070B07058
:1046B0000097A105B10581F0808D918DA28DB38DFC
:1046C000E816F9060A071B0739F0D6015896ED924D
:1046D000FD920D931C935B97832D27960FB6F8944C
:1046E000DEBF0FBECDBFCF91DF911F910F91FF9025
:1046F000EF90DF90CF90BF90AF909F908F907F9082
:104700006F905F904F903F902F9008956F927F929F
:104710008F929F92AF92BF92CF92DF92EF92FF92D1
:104720000F931F93CF93DF933C016A017B01FC0140
:10473000C081D181423051056105710508F470C016
:104740008F89988DA98DBA8D481759076A077B07FD
:1047500008F066C0011511052105310569F0CE018B
:10476000B901A8010FEF1FEF2FEF3FEF0E94201EAE
:10477000682F882309F055C0C301B701A6010E9424
:10478000371C4B015C01611571058105910511F420
:1047900060E047C081E088169104A104B10409F4E7
:1047A0003FC0EFEF8E16EFEF9E06EFEFAE06EFEF96
:1047B000BE0611F461E035C0CE01B701A60100E0EC
:1047C00010E020E030E00E94201E682F882349F589
:1047D0002F85388949895A898F89988DA98DBA8DF5
:1047E0000297A109B109281739074A075B0758F44E
:1047F0002F5F3F4F4F4F5F4F2F87388B498B5A8B1F
:104800008C8181608C83750164018F89988DA98D5D
:10481000BA8D88169906AA06BB0608F4ADCF01C06A
:1048200062E0862FDF91CF911F910F91FF90EF9063
:10483000DF90CF90BF90AF909F908F907F906F90C0
:104840000895EF92FF920F931F93DF93CF9300D0C1
:10485000CDB7DEB77C01BE016F5F7F4F0E940918A4
:10486000182F882309F06DC0F7011785112309F06F
:1048700068C0868581FD02C017E063C0F70120890A
:1048800031894289538982859385A485B585281706
:1048900039074A075B0708F054C021153105410567
:1048A000510591F44681578160857185C70100E00B
:1048B00010E020E030E00E948623182FF7011682D6
:1048C0001782108611862FC0F701448955896689A1
:1048D0007789C7010E94371CAB01BC014F3FFFEF36
:1048E0005F07FFEF6F07FFEF7F0711F411E01BC0B9
:1048F000413051056105710511F412E014C0E981E0
:10490000FA818789908DA18DB28D481759076A0762
:104910007B0748F4F7010489158926893789C7017F
:104920000E948623182FF70180899189A289B38973
:1049300082879387A487B5878685806486871111CF
:104940001787812F0F900F90CF91DF911F910F91BB
:10495000FF90EF900895EF92FF920F931F93CF93E4
:10496000DF93EC017B010881198184E024C0C80138
:104970000E944D18882351F5EA8DFB8D208122235A
:1049800081F193859F739C83253E71F02E3261F0F7
:104990009F3051F020E030E09F71983011F421E019
:1049A00030E02E153F05B1F0CE0160E070E00E94CE
:1049B0006F20882359F44E895F89688D798D411560
:1049C00051056105710599F6882321F01E8A1F8A19
:1049D000188E198EDF91CF911F910F91FF90EF905C
:1049E000089584E0F3CFDF92EF92FF920F931F932D
:1049F000DF93CF9300D0CDB7DEB78C017B01BE0132
:104A00006F5F7F4F0E940918D82E8823F9F4E114B4
:104A1000F10441F4C80140E050E060E070E00E9421
:104A2000131D15C0C80160E070E00E94AB24843003
:104A300011F0882361F4C801B7010E942F10C8014A
:104A400060E070E00E946F20843009F48D2D0F909B
:104A50000F90CF91DF911F910F91FF90EF90DF901A
:104A60000895CF92DF92EF92FF920F931F93CF930F
:104A7000DF938C016B01DC01ED90FC9040E050E095
:104A800060E070E00E94131D882321F5C0E0D0E0B3
:104A9000F80146895789608D718DC7010E944D18B4
:104AA0008823C1F4D8015A96ED91FC915B97E0817F
:104AB000E53E29F0EE2319F0C0E0D0E004C02196D5
:104AC000CC15DD0551F0C80161E070E00E946F2057
:104AD0008823F1F2843009F487E0DF91CF911F91B0
:104AE0000F91FF90EF90DF90CF900895DF92EF92BB
:104AF000FF920F931F93DF93CF93CDB7DEB7C254CE
:104B0000D0400FB6F894DEBF0FBECDBF8E010F5B55
:104B10001F4FF80191838083C801BE016F5F7F4FF3
:104B200042E00E94ED18882309F0F4C089819A813F
:104B30009A8F898FF801A081B18100E010E002C056
:104B40000F5F1F4FFD01E00FF11F80818032C0F722
:104B500001501040FD01E00FF11F0F5F1F4F02C019
:104B6000015010400115110509F479C08081319779
:104B70008032B1F3DEC0FD01E60FF71FE0812E2F7A
:104B800030E06F5F7F4FE13818F1E03A20F0E03E0F
:104B9000F8F0ED3FE8F44A305105C0F460177107B2
:104BA000A8F4FD01E60FF71FE081E03478F0EF375D
:104BB00020F0EF3759F0ED3F48F4922F88272E2F41
:104BC00030E0282B392B6F5F7F4F02C020E030E0B0
:104BD000C901815690404A9710F420523040211567
:104BE000310509F494C0E8EAF2E001C03196808111
:104BF000882329F090E082179307C1F788C02F3FE0
:104C0000310509F018F48BE090E002C08AE090E0F2
:104C10004817590708F07BC02F3F310539F030F0B5
:104C2000F701E40FF51F30834F5F5F4FF701E40F8B
:104C3000F51F20834F5F5F4F6017710708F49BCF0C
:104C4000F701E40FF51F80E203C081934F5F5F4FD0
:104C50004B305105D0F38B81853E09F458C01F8E2F
:104C600018A219A21AA299E1E92EF12CEC0EFD1E50
:104C7000C70140E050E060E070E00E94131DD82EB4
:104C8000882309F046C0C70161E070E00E94AB24B0
:104C9000882399F4EBA9FCA9012B61F0DF01FE0147
:104CA00033969E01225F3F4F81918D93E217F30768
:104CB000D9F725C085EE808322C0843059F5012BB9
:104CC00041F1C70161E070E00E943125882311F5B0
:104CD000EBA9FCA980E290E011920197E9F7EBA91A
:104CE000FCA988E08387ABA9BCA9FE0133969E018D
:104CF000225F3F4F81918D93E217F307D9F7E98146
:104D0000FA8181E08383CF010E94A41703C086E06B
:104D100001C08D2DCE5BDF4F0FB6F894DEBF0FBE06
:104D2000CDBFCF91DF911F910F91FF90EF90DF905A
:104D300008951B8260E070E040E050E083E0E82EE0
:104D4000F12CEC0EFD1E17CFAF92BF92CF92DF92E7
:104D5000EF92FF920F931F93DF93CF93CDB7DEB700
:104D6000AC970FB6F894DEBF0FBECDBF9CA78BA744
:104D70007B015A01CE018B96BE016F5F7F4F40E0F1
:104D80000E94ED18082F882309F072C0E114F10485
:104D900009F444C089819A819C838B8319861A8681
:104DA0001B861C86A3E0CA2ED12CCC0EDD1EC601AC
:104DB00040E050E060E070E00E94131D182F88234F
:104DC00031F5C60161E070E00E94AB24182F882302
:104DD000F1F420E030E0F701E20FF31FAD8DBE8D5E
:104DE000A20FB31F8C9180832F5F3F4F2B30310573
:104DF00091F7F7012BE030E013862115310571F0B2
:104E000021503040828531978032B1F307C0143091
:104E100019F4F701108202C0112359F5A114B1044D
:104E200039F1E981FA81478D50A161A172A1CF01C9
:104E30000E944D18182F8823E1F4E981FA818081BE
:104E4000833019F0843039F403C083E490E005C066
:104E500084E690E002C087E290E0C3968E0F9F1F29
:104E60000E94AC0FF501608371838283938301C03C
:104E7000102F812FAC960FB6F894DEBF0FBECDBFBA
:104E8000CF91DF911F910F91FF90EF90DF90CF9026
:104E9000BF90AF9008958F929F92AF92BF92CF92A2
:104EA000DF92EF92FF920F931F93CF93DF93EC016A
:104EB0008B01C880D980FB0180818F3271F08C35E5
:104EC00061F0F60183899489A589B6898E839F83D1
:104ED000A887B9870CC00F5F1F4FF80180818F3200
:104EE000D1F38C35C1F31E821F8218861986F80112
:104EF0008081803250F03CE1A32EB12CAC0EBD1E5F
:104F000020E2922E95E0892E0BC080E88FA3CE017F
:104F100040E050E060E070E00E94131D682F0FC178
:104F2000F5018BE090E091920197E9F7F80180811B
:104F30008E3241F040E050E060E070E088E0E82E22
:104F4000F12C28C0DE0180E090E0F801E80FF91FA5
:104F5000E0810196EE3249F411968330910509F40F
:104F6000EBC05B96EC935B97F0CFEF3229F0EC351A
:104F700039F0E13208F0E0C0E13210F424E201C07F
:104F800020E2080F191F2FA3EDC048E050E0BBE05E
:104F9000EB2EF12CF801E60FF71F20816F5F7F4F9A
:104FA000213208F461C02F3211F02C3569F4F80178
:104FB000E60FF71F03C06F5F7F4F319680818F32FE
:104FC000D1F38C35C1F350C02E3219F04E155F0568
:104FD00040F0FBE0EF16F10409F4AEC02E32A9F266
:104FE000ABC0213808F4B9C0203A30F0203E08F4B4
:104FF000B4C02D3F08F0B1C0F801E60FF71F3081B3
:10500000303408F499C03F3730F03F3709F494C08A
:105010003D3F08F091C0C70101974817590708F0B4
:105020008BC06F5F7F4FFE01E40FF51F248FCA0115
:105030000196FE01E80FF91F348FAC0112C03196C2
:105040008081882329F090E08A179B07C1F774C0FC
:10505000822F81568A3108F42052FE01E40FF51F99
:10506000248F4F5F5F4F96CF452B09F465C08C8D21
:10507000853E09F48C8E213210F080E001C084E07E
:10508000060F171F8FA36EC04E895F89688D798DBB
:10509000C7010E944D18682F882329F5EA8DFB8DE2
:1050A0008081882311F464E01EC083858F738C8314
:1050B000838583FD12C0DF01F5014BE050E08D9147
:1050C000282F30E08191281B31094150504019F0C0
:1050D000232BA9F302C0232B31F0CE0160E070E056
:1050E0000E946F2048C08FA1662391F0643039F58B
:1050F00090E09C012470307085FF07C0232B09F4D9
:105100000FCF80E88FA360E01AC0232BB9F017C03F
:1051100082FD15C08C8184FF11C06E857F85717002
:105120006D5C7F4F6C0D7D1DC6010E94EF0F6E837D
:105130007F8388879987F4CE66E001C065E0862F7B
:10514000DF91CF911F910F91FF90EF90DF90CF9063
:10515000BF90AF909F908F900895A22FB0E0EDE7A1
:10516000F2E06ECFE880F980CE0140E050E060E0F0
:1051700070E00E94131D682F882309F485CFB3CFF8
:105180000F931F93DF93CF93CDB7DEB7AC970FB6D6
:10519000F894DEBF0FBECDBF9CA78BA78B01CE01BD
:1051A0008B96BE016F5F7F4F42E00E94ED1888230F
:1051B00069F589819A819C838B836BA57CA5CE013F
:1051C00003960E944B27882309F58AA5807A11F05F
:1051D00086E01CC08D8D9E8DF8014481558160E074
:1051E00070E0BA01552744270681178120E030E09E
:1051F000402B512B622B732B46960E94D80FE981CE
:10520000FA8181E08383CF010E94A417AC960FB688
:10521000F894DEBF0FBECDBFCF91DF911F910F91EC
:1052200008950F931F93DF93CF93CDB7DEB7AC975D
:105230000FB6F894DEBF0FBECDBF9CA78BA7062F7D
:10524000142FCE018B96BE016F5F7F4F42E00E940C
:10525000ED18882319F589819A819C838B836BA52E
:105260007CA5CE0103960E944B278823B9F48AA51A
:10527000807A11F086E012C0212F2772ED8DFE8D0D
:10528000822F8095938589232023822B8387E98130
:10529000FA8181E08383CF010E94A417AC960FB6F8
:1052A000F894DEBF0FBECDBFCF91DF911F910F915C
:1052B0000895CF92DF92EF92FF921F93DF93CF93E7
:1052C000CDB7DEB7AA970FB6F894DEBF0FBECDBF3D
:1052D0009AA789A76B01CE0189967E010894E11CEB
:1052E000F11CB70140E00E94ED18182F8823A1F4AB
:1052F00069A57AA5C7010E944B27182F882361F45E
:1053000088A587FF02C016E007C0C114D10421F0B0
:10531000C701B6010E942F10812FAA960FB6F894EC
:10532000DEBF0FBECDBFCF91DF911F91FF90EF90F9
:10533000DF90CF9008950F931F93DF93CF9300D00A
:1053400000D0CDB7DEB78C017C836B83009711F45E
:1053500089E03FC0CE010396BE016F5F7F4F40E002
:105360000E94ED18882391F589819A81F801918333
:1053700080836B817C81C8010E944B27882301F5C3
:10538000F80187A187FD0EC0848184FF1EC0628D55
:10539000738D89819A810E94EF0FF801668377836C
:1053A00080879187E981FA8185819681F8019383CD
:1053B0008283C80140E050E060E070E00E94131D6D
:1053C000843019F0882329F001C085E0F8011182AA
:1053D00010820F900F900F900F90CF91DF911F913F
:1053E0000F9108950F93DF93CF93CDB7DEB7AE97AC
:1053F0000FB6F894DEBF0FBECDBF9CA78BA7CE0122
:105400008B96BE016F5F7F4F40E00E94ED18082F22
:10541000882381F589819A819C838B836BA57CA5E8
:10542000CE0103960E944B27082F882301F58AA5F9
:1054300087FF0BC0E981FA8189859A85AB85BC8598
:10544000838B948BA58BB68B15C08F8184FF11C085
:1054500089819A819EA78DA76D8D7E8D0E94EF0F09
:10546000EDA5FEA5638B748B858B968B03C0843072
:1054700009F405E0802FAE960FB6F894DEBF0FBE9C
:10548000CDBFCF91DF910F9108950F931F93CF93CD
:10549000DF93EC010881198161E070E00E94312501
:1054A000482F8823F9F44E895F89688D798DC8016A
:1054B0000E944D18482F8823A9F4EA8DFB8D80E2C5
:1054C00090E011920197E9F7AA8DBB8DFE017C96C1
:1054D0002BE030E081918D9321503040D9F781E06D
:1054E000F8018383842FDF91CF911F910F9108954D
:1054F000AF92BF92CF92DF92EF92FF920F931F93E2
:10550000DF93CF93CDB7DEB7AC970FB6F894DEBF7D
:105510000FBECDBF9CA78BA7CE018B96BE016F5F40
:105520007F4F42E00E94ED18F82E882309F0D0C08A
:1055300089819A819C838B838E010D5F1F4F6BA5A0
:105540007CA5C8010E944B27F82E882351F084E0E7
:10555000F81609F0BDC08AA585FF06C046E0F42E06
:10556000B7C038E0F32EB4C0C80140E050E060E0BE
:1055700070E00E94281F5B016C01E981FA8181853E
:105580009285A0E0B0E029E0880F991FAA1FBB1FF9
:105590002A95D1F78D879E87AF87B88BA114B10468
:1055A000C104D10419F407E0F02E88C081E0A816E8
:1055B000B104C104D10419F412E0F12E7FC08FEFC1
:1055C000A8168FEFB8068FEFC8068FEFD80609F43C
:1055D00091C0CF010E94D216F82E882309F06EC028
:1055E00089819A81B601A5010E942817F82E882387
:1055F00009F064C009811A81B3E3EB2EF12CE00EAF
:10560000F11EF7018BE090E020E221930197E9F78A
:105610008EE2F80183AB80E186AFC801875B9F4FC4
:1056200040E050E061E278E40E94D80F89819A81DD
:10563000B701A60195010E941E10F70120E230E09B
:10564000808180A3319621503040D1F70C5A1F4FF2
:105650008EE2F80180830150104029853A854B8500
:105660005C8589819A81B8010E941E10E981FA81C6
:10567000EE24E394E382CE0103960E94452AF82E9D
:105680008823E1F40D8D1E8DC801469640E050E060
:1056900061E278E40E94D80F89819A81B801A6015D
:1056A00095010E941E1080E1F8018387E981FA814B
:1056B000E382CF010E94A417F82E0AC0CE01039600
:1056C000B601A50100E010E020E030E00E94862352
:1056D0008F2DAC960FB6F894DEBF0FBECDBFCF9125
:1056E000DF911F910F91FF90EF90DF90CF90BF90CF
:1056F000AF900895FF24F394E1CFDF92EF92FF92F1
:105700000F931F93DF93CF93CDB7DEB7C657D0402B
:105710000FB6F894DEBF0FBECDBF8E010D581F4FE0
:10572000D8018D939C93FE01EB58FF4F71836083EA
:10573000CF010E948910C801BE016F5F7F4F42E018
:105740000E94ED18882309F00BC189819A819CA3DE
:105750008BA363E2E62EF12CEC0EFD1EF8016081B6
:105760007181C7010E944B27882309F0F9C0FE010F
:10577000E65BFF4F8081807A11F086E0F1C08DAD4D
:105780009EAD9C01D901FE0133968D918193EE155A
:10579000FF05D9F720E030E08E01055B1F4FAE0119
:1057A0004D5D5F4FF801E20FF31FDA01A20FB31F47
:1057B0008C9180832F5F3F4F2832310599F7FE018E
:1057C000EB58FF4F60817181C8010E944B278823ED
:1057D00009F5D80116962D913D914D915C9119973F
:1057E00089A59AA5ABA5BCA5281739074A075B0769
:1057F00009F09CC0F801268537854089518989A91F
:105800009AA9ABA9BCA9281739074A075B0709F071
:105810008DC003C0843009F0A3C08E01055B1F4F0B
:10582000C8010E94452A882309F09AC0D8015A96D7
:105830006D917C915B97DB01FE01709681911D96C5
:105840008C931D971196EE15FF05C1F78E85FB0110
:10585000838784FD02C080628387E981FA81DD2429
:10586000D394D382DB011B968C9184FF61C05BE4EF
:10587000E52EF12CEC0EFD1E29A53AA54BA55CA545
:10588000F70186819781A085B185281739074A07D6
:105890005B0709F44DC009811A81C8010E94EF0F0E
:1058A0009B01AC012250304040405040F8018789B4
:1058B000908DA18DB28D0297A109B10928173907E2
:1058C0004A075B0708F04BC06185728580E090E075
:1058D0000E948A4BAB01BC01F80183A594A5A5A544
:1058E000B6A5480F591F6A1F7B1F41155105610559
:1058F0007105A9F1C8010E944D1869817A81882338
:1059000079F5FB01ED5AFF4F81818E3289F4D70181
:1059100016962D913D914D915C911997CB01BF0148
:105920000E941E10E981FA81D38202C088E018C06B
:105930000BA11CA149AD5AAD6BAD7CADC8010E9455
:105940004D18882369F4EDADFEAD85EE808381E0CE
:10595000F801838389819A810E94A41701C082E0A3
:10596000CA58DF4F0FB6F894DEBF0FBECDBFCF9140
:10597000DF911F910F91FF90EF90DF900895BF92FC
:10598000CF92DF92EF92FF920F931F93DF93CF930B
:10599000CDB7DEB7C455D0400FB6F894DEBF0FBE0A
:1059A000CDBF8E010D5A1F4FF80191838083C8012E
:1059B000BE016F5F7F4F42E00E94ED18882309F01F
:1059C0005DC089819A819C838B83F801608171819C
:1059D000CE0103960E944B27882309F04FC08AA569
:1059E00085FD02C087FF02C086E048C08F81B82EC7
:1059F00080FF55C060C0F80183899489A589B68964
:105A0000C816D906EA06FB0609F455C01CA70BA761
:105A1000C9AADAAAEBAAFCAA8E01055D1F4FC8012C
:105A200040E050E060E070E00E94131D882331F5F3
:105A3000C80160E070E00E94AB248823E1F184306B
:105A4000E1F11CC0ED8DFE8D85EE808381E0F801D3
:105A50008383C114D104E104F10461F0CE01039603
:105A6000B701A60100E010E020E030E00E948623AC
:105A7000882321F489819A810E94A417CC5ADF4F90
:105A80000FB6F894DEBF0FBECDBFCF91DF911F914F
:105A90000F91FF90EF90DF90CF90BF900895098114
:105AA0001A816D8D7E8DC8010E94EF0F6B017C0104
:105AB000B4FCA1CF02C087E0E1CF0B811C81498DEE
:105AC0005A8D6B8D7C8DC8010E944D18882309F476
:105AD000B9CFD4CF2F923F924F925F926F927F9225
