:100000000C94EE000C940D010C940D010C940D0158
:100010000C940D010C940D010C940D010C940D0128
:100020000C940D010C94D9010C940D010C940D014C
:100030000C940D010C940D010C940D010C940D0108
:100040000C940D010C940D010C940D010C940D01F8
:100050000C940D010C940D010C940D010C94B40A38
:100060000C940D010C940D010C940D010C940D01D8
:100070000C940D010C940D010C940D010C940D01C8
:100080000C940D010C940D010C940D016E616E0029
:10009000696E66006364696E6F70737578585B652E
:1000A000666745464700616E006E66696E697479E1
:1000B00000CDCCCC3D0AD7233C17B7D13877CC2B19
:1000C000329595E6241FB14F0A000020410000C878
:1000D0004200401C4620BCBE4CCA1B0E5AAEC59DF9
:1000E0007400407A10F35A00A0724E18090010A54F
:1000F000D4E80000E87648170000E40B5402000042
:10010000CA9A3B000000E1F50500008096980000C7
:100110000040420F000000A08601000000102700F0
:10012000000000E803000000006400000000000A76
:1001300000000000000100000000002C76D888DCE0
:10014000674F0823DFC1DFAE59E1B1B796E5E3E4BD
:1001500053C63AE651997696E8E6C28426EB898C36
:100160009B62ED407C6FFCEFBC9C9F40F2BAA56F98
:10017000A5F490055A2AF75C936B6CF9676DC11B67
:10018000FCE0E40D47FEF520E6B500D0ED902E032F
:1001900000943577050080841E080000204E0A0078
:1001A0000000C80C333333330F986E12831141EFC4
:1001B0008D2114893BE65516CFFEE6DB18D1844B22
:1001C000381BF77C1D901DA4BBE424203284725E92
:1001D000228100C9F124ECA1E53D270011241FBEB6
:1001E000CFEFD0E1DEBFCDBF14E0A0E0B1E0ECE5A1
:1001F000FEE900E00BBF02C007900D92A236B107E6
:10020000D9F71BE0A2E6B4E001C01D92A43CB107FF
:10021000E1F70E9475080C942C4F0C9400000F938A
:100220001F93182F092F2091B2023091B3028091B1
:10023000B0029091B1022817390731F480E091E0C3
:100240000E94394E81E060C08091A404813009F0A1
:100250005BC08EE091E00E94394E8091B202909195
:10026000B3026091AE027091AF0201960E94304CD1
:100270009093B3028093B202212F302FC901DC0189
:1002800020E030E08091B2029091B302FC0144E0A2
:10029000EE0FFF1F4A95E1F7E80FF91FE20FF31F7A
:1002A000EE0FFF1FE555FA4F808191818D939D934D
:1002B0002F5F3F4F2131310529F700D000D000D00A
:1002C000EDB7FEB7319687E191E0ADB7BEB71296B4
:1002D0009C938E9311978091B0029091B102938379
:1002E00082838091B2029091B302958384830E94AD
:1002F000274E80E02DB73EB72A5F3F4F0FB6F894E8
:100300003EBF0FBE2DBF00C01F910F910895CF9229
:10031000DF92EF92FF920F931F93DF93CF93CDB7AE
:10032000DEB7A2970FB6F894DEBF0FBECDBF8E0129
:100330000F5F1F4FC8010E940F01882359F500D09D
:1003400085E491E0EDB7FEB7928381830E94274E4A
:100350000F900F9069E5C62E61E0D62E53E2E52E90
:10036000F12CEC0EFD1E00D000D0EDB7FEB7D2820E
:10037000C182F801819191918F01EDB7FEB794830D
:1003800083830E94274E0F900F900F900F900E15B1
:100390001F0549F7A2960FB6F894DEBF0FBECDBF7A
:1003A000CF91DF911F910F91FF90EF90DF90CF9051
:1003B00008951F920F920FB60F920BB60F92112451
:1003C0002F933F934F935F936F937F938F939F935D
:1003D000AF93BF93EF93FF93809162049091630476
:1003E00001969093630480936204C29779F480919C
:1003F000640490916504019690936504809364046D
:1004000010926304109262040E948701FF91EF91A1
:10041000BF91AF919F918F917F916F915F914F911C
:100420003F912F910F900BBE0F900FBE0F901F901A
:100430001895CF93DF93EC01E091AE02F091AF02FB
:100440008091B0029091B1020196BF010E94304CA0
:100450009C019093B1028093B0028091B20290917E
:10046000B3028217930799F4009731F43197F09310
:10047000B102E093B00253C001979093B102809310
:10048000B0028DE591E00E94394E81E048C08AE6D5
:1004900091E00E94394E4091B0025091B102CA01E0
:1004A000DC01E5E0AA0FBB1FEA95E1F7880F991F71
:1004B000A80FB91FA555BA4F20E030E0FE01E20FAA
:1004C000F31F808191818D939D932E5F3F4F223248
:1004D0003105A1F781E08093A40400D000D000D0C2
:1004E000EDB7FEB7319681E791E0ADB7BEB7129692
:1004F0009C938E931197428353838091B202909183
:10050000B302958384830E94274E80E02DB73EB7C7
:100510002A5F3F4F0FB6F8943EBF0FBE2DBFDF914D
:10052000CF9108952F923F924F925F926F927F9258
:100530008F929F92AF92BF92CF92DF92EF92FF92F3
:100540000F931F93DF93CF93CDB7DEB7C452D14043
:100550000FB6F894DEBF0FBECDBFB82E25E08217D0
:1005600009F479C0281798F032E08317A9F13817F9
:1005700028F081E0B81609F0B3C019C093E08917DC
:1005800009F43FC0A4E08A1709F0AAC04FC0B7E041
:100590008B1709F48AC08B1708F472C0E8E08E1735
:1005A00009F49EC0F9E08F1709F09AC093C000D0FB
:1005B00000D000D0EDB7FEB73196CE010196ADB7B1
:1005C000BEB712969C938E9311978EE991E0938318
:1005D000828383EA91E098C000D000D000D0EDB7CC
:1005E000FEB73196CE010196ADB7BEB712969C9379
:1005F0008E9311978EE991E09383828388EA91E04C
:1006000083C000D000D000D0EDB7FEB73196CE0148
:100610000196ADB7BEB712969C938E9311978EE953
:1006200091E0938382838DEA91E06EC000D000D088
:1006300000D0EDB7FEB73196CE010196ADB7BEB78B
:1006400012969C938E9311978EE991E09383828307
:1006500082EB91E059C000D000D000D0EDB7FEB7DA
:100660003196CE010196ADB7BEB712969C938E938C
:1006700011978EE991E09383828387EB91E044C0E8
:1006800000D000D000D0EDB7FEB73196CE01019674
:10069000ADB7BEB712969C938E9311978EE991E0F9
:1006A000938382838CEB91E02FC000D000D000D0E8
:1006B000EDB7FEB73196CE010196ADB7BEB7129633
:1006C0009C938E9311978EE991E09383828381ECC2
:1006D00091E01AC081E0809367048093660420C093
:1006E00000D000D000D0EDB7FEB73196CE01019614
:1006F000ADB7BEB712969C938E9311978EE991E099
:100700009383828386EC91E0958384830E94804E5C
:10071000EDB7FEB736960FB6F894FEBF0FBEEDBF2D
:1007200080916704882309F0B2C084E060E448E067
:100730009E012F5F3F4F0E94270F84E068E443E053
:100740002BEC31E00E94270F84E068EC47E020E0CA
:1007500005E00E94910E2BEBC22E24E0D22E9FE0EA
:10076000A92EB12CAC0EBD1E750100E010E08FEC7F
:10077000882E81E0982ED6018D919D916D01F70113
:10078000819391937F0100D000D000D0EDB7FEB7E8
:100790003196ADB7BEB712969C928E921197138385
:1007A0000283958384830E94274E0F5F1F4FEDB70E
:1007B000FEB736960FB6F894FEBF0FBEEDBF0131FF
:1007C0001105C9F6CFA4D8A800E010E0B5E0EB2EE3
:1007D000F12CEC0EFD1EA9E56A2EA1E07A2EFCEDAF
:1007E0008F2EF1E09F2E00311105E9F400D000D0EA
:1007F00000D0EDB7FEB73196ADB7BEB71296FC92FA
:10080000EE92119793828282D582C4820E94804E9A
:10081000EDB7FEB736960FB6F894FEBF0FBEEDBF2C
:1008200040E050E014C000D000D000D0EDB7FEB7DB
:100830003196ADB7BEB71296FC92EE9211977382C5
:100840006282D5018D919C9195838483DFCFF701DE
:10085000E40FF51F8081882339F04F5F5F4F4A30E6
:100860005105A9F744E050E084E060E097010E9460
:10087000270F0F5F1F4F22E030E0A20EB31E0131A1
:10088000110509F0B0CF81E0809367042EC281305A
:1008900009F0E4C180916604882309F0DFC1EBEB25
:1008A0004E2EE4E05E2E620171E3E72EF12CEC0E99
:1008B000FD1E01E110E06FEC862E61E0962ED60160
:1008C0008D919D916D01F701819391937F0100D0EE
:1008D00000D000D0EDB7FEB73196ADB7BEB71296D7
:1008E0009C928E92119713830283958384830E9436
:1008F000274E0F5F1F4FEDB7FEB736960FB6F89431
:10090000FEBF0FBEEDBF02321105C9F60B2D10E080
:1009100000D000D082EE91E0ADB7BEB712969C93A6
:100920008E93119714961C930E9313970E94274E43
:1009300051E0852E912C0F900F900F900F90F801A1
:100940003196C15EDE4FF983E883CF51D1409801E3
:1009500020953095CF5DDE4F39832883C152D14039
:1009600045E0242E312C2C0E3D1E87E590E08C0FA7
:100970009D1F8296CD5DDE4F99838883C352D140FF
:10098000C1C0D7018D919C91EEEDFFEFEE0EFF1EE1
:10099000D701ED91FC9122E230E0E20EF31E9C01C2
:1009A0002E1B3F0B8E179F0798F037FF03C0309523
:1009B00021953F4F829EC001839E900D929E900D87
:1009C0001124C15EDE4F68817981CF51D14012C0C0
:1009D00037FF03C0309521953F4F829EC001839E13
:1009E000900D929E900D1124CF5DDE4F688179812C
:1009F000C152D1400E94444CE60FF71FD501ED9340
:100A0000FC93F5010081118100D000D000D0EDB73A
:100A1000FEB731962AEE31E0ADB7BEB712963C93E1
:100A20002E931197D382C282158304830E94274E8E
:100A30008DB79EB706960FB6F8949EBF0FBE8DBFBA
:100A400090E1C916D104F9F400D000D000D0EDB780
:100A5000FEB73196ADB7BEB712963C922E92119763
:100A60002CED31E033832283158304830E94804E72
:100A70008DB79EB706960FB6F8949EBF0FBE8DBF7A
:100A800040E050E00FC000D000D000D0EDB7FEB77E
:100A90003196ADB7BEB712963C922E92119729E5CA
:100AA00031E0E0CFF101E40FF51F8081882339F0B8
:100AB0004F5F5F4F4A305105A9F744E050E084E0B2
:100AC00060E091010E94270F0894C11CD11CA2E094
:100AD000B0E0EA0EFB1EAA0EBB1EB1E1CB16D1049C
:100AE00009F04FCFF301119211923F01CD5DDE4F1E
:100AF00028813981C352D140E217F30799F708944E
:100B0000811C911CC15EDE4F88819981CF51D140FB
:100B10008816990671F037E5632E712C6C0E7D1ED8
:100B200021E3E22EF12CEC0EFD1E5301CC24DD243A
:100B300028CF9FE0C92ED12CCC0EDD1E760100E01F
:100B400010E08FECA82E81E0B82ED2018D919D91FE
:100B50002D01F701819391937F0100D000D000D047
:100B6000EDB7FEB73196ADB7BEB71296BC92AE9256
:100B7000119713830283958384830E94274E0F5F0E
:100B80001F4FEDB7FEB736960FB6F894FEBF0FBEF7
:100B9000EDBF01311105C9F6AFA4B8A800E010E01F
:100BA000B5E0EB2EF12CEC0EFD1EA9E56A2EA1E0BE
:100BB0007A2EFCED8F2EF1E09F2E00311105E9F425
:100BC00000D000D000D0EDB7FEB73196ADB7BEB7BC
:100BD0001296FC92EE92119793828282B582A48241
:100BE0000E94804EEDB7FEB736960FB6F894FEBF62
:100BF0000FBEEDBF40E050E014C000D000D000D0E8
:100C0000EDB7FEB73196ADB7BEB71296FC92EE9235
:100C1000119773826282D6018D919C919583848312
:100C2000DFCFF701E40FF51F8081882339F04F5F94
:100C30005F4F4A305105A9F744E050E084E060E09E
:100C400097010E94270F0F5F1F4F22E030E0C20E76
:100C5000D31E0131110509F0B0CF47C08091660461
:100C6000813009F042C000D000D000D0EDB7FEB70F
:100C700031968E010B5F1F4FADB7BEB712961C9316
:100C80000E9311978EEF91E09383828383E290E03D
:100C9000958384830E94804E40E050E0EDB7FEB71C
:100CA00036960FB6F894FEBF0FBEEDBFF801E40F05
:100CB000F51F8081882339F04F5F5F4F4A3051051F
:100CC000A9F744E050E084E060E09E012B5F3F4FD5
:100CD0000E94270F84E068EC41E020E000E00E94E1
:100CE000910E81E092E00E94394ECC5DDE4F0FB64E
:100CF000F894DEBF0FBECDBFCF91DF911F910F9152
:100D0000FF90EF90DF90CF90BF90AF909F908F902B
:100D10007F906F905F904F903F902F9008952F920B
:100D20003F924F925F926F927F929F92AF92BF924B
:100D3000CF92DF92EF92FF920F931F93DF93CF93A7
:100D4000CDB7DEB7C454D0400FB6F894DEBF0FBEA7
:100D5000CDBF082F8EE092E00E94394E00D000D027
:100D6000EDB7FEB7319689E192E0ADB7BEB7129606
:100D70009C938E931197028313820E94274E0F90AB
:100D80000F900F900F90043009F453C0053040F4D9
:100D9000023029F10330C0F5013009F09EC00AC0CD
:100DA000063009F470C0063008F458C0073009F066
:100DB00094C07EC000D000D000D0EDB7FEB7319611
:100DC000CE010196ADB7BEB712969C938E93119744
:100DD0008EE991E09383828383EA91E092C000D010
:100DE00000D000D0EDB7FEB73196CE010196ADB779
:100DF000BEB712969C938E9311978EE991E09383E0
:100E0000828388EA91E07DC000D000D000D0EDB7A9
:100E1000FEB73196CE010196ADB7BEB712969C9340
:100E20008E9311978EE991E0938382838DEA91E00E
:100E300068C000D000D000D0EDB7FEB73196CE012B
:100E40000196ADB7BEB712969C938E9311978EE91B
:100E500091E09383828382EB91E053C000D000D075
:100E600000D0EDB7FEB73196CE010196ADB7BEB753
:100E700012969C938E9311978EE991E093838283CF
:100E800087EB91E03EC000D000D000D0EDB7FEB7B8
:100E90003196CE010196ADB7BEB712969C938E9354
:100EA00011978EE991E0938382838CEB91E029C0C6
:100EB00000D000D000D0EDB7FEB73196CE0101963C
:100EC000ADB7BEB712969C938E9311978EE991E0C1
:100ED0009383828381EC91E014C000D000D000D0D5
:100EE000EDB7FEB73196CE010196ADB7BEB71296FB
:100EF0009C938E9311978EE991E09383828386EC85
:100F000091E0958384830E94804EEDB7FEB73696BC
:100F10000FB6F894FEBF0FBEEDBF1092A60410925C
:100F2000A50484E060E448E07E010894E11CF11C23
:100F300097010E94270F84E068E443E02BEC31E046
:100F40000E94270F84E068EC4FEF20E001E00E9450
:100F5000910E992425E0422E512C4C0E5D1E9FE0EF
:100F6000692E712C6C0E7D1E83E2282E312C2C0EE6
:100F70003D1E93C00894E11CF11C84E060E041E058
:100F800098010E947F0DD8018C91C82EDD24B3E218
:100F9000CB16D10409F471C00F5F1F4FE0E2CE16EB
:100FA000D10441F7F201EE0DFF1D108287010150BF
:100FB0001040D2015301F30160E070E02FC09C911A
:100FC000892F80538A30E8F4892F90E0C09791836D
:100FD000808340E050E011C0808191819C01220F0C
:100FE000331F220F331F220F331F880F991F280F23
:100FF000391F318320834F5F5F4F4017510764F3E0
:1010000007C09D3011F09A3019F41C9211821082A1
:101010006F5F7F4F01501040119632966E157F051D
:1010200074F24091A5045091A60420E030E008C07D
:10103000D5018D919D915D01480F591F2F5F3F4F45
:101040002E153F05ACF34093A5045093A604E92D5B
:10105000F0E0EE0FFF1F81E090E08C0F9D1FE80F86
:10106000F91F53A342A3939491E1991631F4C1015E
:101070000E9419028823D9F799241092A60410928D
:10108000A504F201D30111921D921D92E615F705F8
:10109000D1F7A3E2CA16D10421F08201EE24FF2485
:1010A0006CCF84E068EC4FEF20E000E00E94910EEE
:1010B00082E392E00E94394ECC5BDF4F0FB6F8948A
:1010C000DEBF0FBECDBFCF91DF911F910F91FF907B
:1010D000EF90DF90CF90BF90AF909F907F906F90F8
:1010E0005F904F903F902F9008952F923F924F9294
:1010F0005F926F927F928F929F92AF92BF92CF92A8
:10110000DF92EF92FF920F931F93DF93CF9300D064
:1011100000D0CDB7DEB70E94BD0981E492E00E9405
:10112000394E87B3806E87BBC69A78940FE712E07A
:10113000E2E0AE2EB12CAC0EBD1E78E8272E72E098
:10114000372E2E010894411C511C6EE8662E62E079
:10115000762E55E9C52E52E0D52E41EEE42E44E020
:10116000F42E3CE4832E3DE1932E8FE492E00E9426
:10117000394E85B5886085BD85B5836085BD87B7E7
:10118000806887BF2BEA23BD00D0E0E7F2E0ADB76F
:10119000BEB71296FC93EE9311970E94274E00D093
:1011A000ADB7BEB712961C930E931197E3E0F0E033
:1011B000EC0FFD1F1496FC93EE9313970E946E4E56
:1011C000E2E8F2E0ADB7BEB71296FC93EE9311974A
:1011D0008B819C8114969C938E9313970E94274E2B
:1011E0000F900F900F900F908B819C818130910513
:1011F00021F0029709F0B9CF76C000D0ADB7BEB7E5
:1012000012963C922E9211970E94274E00D0EDB775
:10121000FEB712830183548243820E946E4E0F9068
:101220000F90ADB7BEB712967C926E9211970E9446
:10123000274E00D0EDB7FEB712830183B482A3829C
:101240000E946E4E8A810F900F900F900F90813008
:1012500061F4EBEBF4E08CE49DE1819391930196D2
:1012600024E0ED3DF207C9F73AC0823001F500D025
:1012700000D0ADB7BEB71296DC92CE9211971496FD
:10128000FC92EE9213970E94274EEBEBF4E08981DB
:1012900090E0835B924E0F900F900F900F90819390
:1012A00091930196B4E0ED3DFB07C9F718C0833078
:1012B000B1F400D000D0EDB7FEB7D282C182F48283
:1012C000E3820E94274EEBEBF4E00F900F900F901B
:1012D0000F908192919224E0ED3DF207D1F7898140
:1012E0000E94920242CF00D0EEE9F2E0ADB7BEB765
:1012F0001296FC93EE9311970E94274E00D0ADB743
:10130000BEB712961C930E9311971496BC92AE9290
:1013100013970E946E4EEDB7FEB7319685EA92E0C4
:10132000ADB7BEB712969C938E9311978A81828334
:1013300013820E94274E0F900F900F900F908A817A
:101340000E948F0612CF1F93182F8A3019F48DE058
:101350000E94A3095D9BFECF1CB980E090E01F9125
:1013600008951F93BC015F9BFECF1CB1812F0E948B
:10137000A309812F90E01F9108951092900081E1C0
:1013800089B98AB188618AB9E5E9F0E0808186602F
:10139000808387B3806E87BB84EB92E09093C10B10
:1013A0008093C00B9093BF0B8093BE0B80E0089599
:1013B000922F483008F0A4C08A3C79F18B3C30F47D
:1013C000883C71F0893C09F09BC018C08C3C09F442
:1013D0005CC08C3C08F43DC08D3C09F091C071C0EC
:1013E00088B130E002C0220F331F4A95E2F7962FF2
:1013F000922360958623982B98B90DC080B530E074
:1014000002C0220F331F4A95E2F7962F9223609570
:101410008623982B90BD20E074C027B1E92FF0E01F
:1014200002C0EE0FFF1F4A95E2F7262330E0862F19
:1014300090E08E239F232817390711F420E001C084
:1014400023E087B1962F9E2360958623982B97B92A
:1014500058C026B1E92FF0E002C0EE0FFF1F4A95F9
:10146000E2F7262330E0862F90E08E239F23281773
:10147000390711F420E001C023E086B1962F9E23A6
:1014800060958623982B96B93CC022B1E92FF0E0F5
:1014900002C0EE0FFF1F4A95E2F7262330E0862FA9
:1014A00090E08E239F232817390711F420E001C014
:1014B00022E082B1962F9E2360958623982B92B9C5
:1014C00020C020916100E92FF0E002C0EE0FFF1F65
:1014D0004A95E2F7262330E0862F90E08E239F2363
:1014E0002817390711F420E001C022E08091610043
:1014F000962F9E2360958623982B9093610001C0C0
:1015000021E0822F0895483088F4883C79F488B12E
:1015100030E002C0220F331F4A95E2F7962F922344
:1015200060958623982B98B980E0089581E008950E
:10153000F901483068F4883C59F488B1862390E07A
:1015400002C0959587954A95E2F7808380E00895DB
:1015500081E00895882311F081E0089570930007D9
:101560006093FF0680E008951F920F920FB60F92CE
:101570000BB60F9211242F933F934F935F936F936A
:101580007F938F939F93AF93BF93EF93FF93E091DC
:10159000FF06F09100070995FF91EF91BF91AF9180
:1015A0009F918F917F916F915F914F913F912F917B
:1015B0000F900BBE0F900FBE0F901F901895922F9B
:1015C000483008F0C0C08A3C09F44AC08B3C30F473
:1015D000883C71F0893C09F0B6C026C08C3C09F407
:1015E00077C08C3C08F458C08D3C09F0ACC08CC06E
:1015F0002AB3E92FF0E002C0EE0FFF1F4A95E2F791
:10160000262330E0862F90E08E239F23281739076A
:1016100011F420E001C022E08AB3962F9E2360954A
:101620008623982B9ABB90C027B3E92FF0E002C025
:10163000EE0FFF1F4A95E2F7262330E0862F90E059
:101640008E239F232817390711F420E001C022E0E0
:1016500087B3962F9E2360958623982B97BB74C0E3
:1016600024B3E92FF0E002C0EE0FFF1F4A95E2F726
:10167000262330E0862F90E08E239F2328173907FA
:1016800011F420E001C022E084B3962F9E236095E0
:101690008623982B94BB58C021B3E92FF0E002C0F9
:1016A000EE0FFF1F4A95E2F7262330E0862F90E0E9
:1016B0008E239F232817390711F420E001C022E070
:1016C00081B3962F9E2360958623982B91BB3CC0B7
:1016D00022B1E92FF0E002C0EE0FFF1F4A95E2F7BA
:1016E000262330E0862F90E08E239F23281739078A
:1016F00011F420E001C022E082B1962F9E23609574
:101700008623982B92B920C020916100E92FF0E048
:1017100002C0EE0FFF1F4A95E2F7262330E0862F26
:1017200090E08E239F232817390711F420E001C091
:1017300022E080916100962F9E2360958623982B4E
:101740009093610001C021E0822F0895FA01613079
:10175000C9F58230D1F0833028F4882351F08130EC
:1017600089F50DC08430E9F08430A8F0853051F55A
:101770001EC08AB38F3F21F580818BBB1FC087B30A
:101780008F3FF1F4808188BB19C084B38F3FC1F4CF
:10179000808185BB13C081B38F3F91F4808182BB70
:1017A0000DC082B18F3F61F4808183B907C0809101
:1017B00061008F3F29F480818093620080E008956A
:1017C00082E0089581E00895FA01613009F042C095
:1017D0008636F1F0873628F4843651F08536D1F517
:1017E0000FC0883629F18836D8F0893699F529C096
:1017F0008AB3882311F490E001C092E089B31FC03E
:1018000087B3882311F490E001C092E086B317C03B
:1018100084B3882311F490E001C092E083B30FC039
:1018200081B3882311F490E001C092E080B307C037
:1018300082B1882311F490E001C092E081B18083ED
:101840000AC080916100882311F490E001C092E009
:1018500080B1F5CF91E0892F0895483008F089C014
:101860008230C1F1833030F4882371F0813009F087
:1018700080C01DC0843009F452C0843008F43DC0DB
:10188000853009F076C05DC05AB35623561709F06B
:101890006EC08BB330E002C0220F331F4A95E2F7CF
:1018A000952F922350955823952B9BBB5EC057B321
:1018B0005623561709F05BC088B330E002C0220FF0
:1018C000331F4A95E2F7952F922350955823952B75
:1018D00098BB4BC054B35623561709F048C085B384
:1018E00030E002C0220F331F4A95E2F7952F922372
:1018F00050955823952B95BB38C051B35623561796
:10190000B1F582B330E002C0220F331F4A95E2F7EF
:10191000952F922350955823952B92BB26C052B1F8
:101920005623561721F583B130E002C0220F331F32
:101930004A95E2F7952F922350955823952B93B90A
:1019400014C0509161005623561789F480916200AB
:1019500030E002C0220F331F4A95E2F7952F922301
:1019600050955823952B9093620080E0089582E073
:10197000089581E00895F901483008F04BC086369B
:1019800001F1873630F4843661F0853609F042C0C3
:1019900010C0883631F18836E0F0893609F03AC057
:1019A00030C08AB3862311F420E001C022E089B35D
:1019B0001FC087B3862311F420E001C022E086B364
:1019C00017C084B3862311F420E001C022E083B362
:1019D0000FC081B3862311F420E001C022E080B360
:1019E00007C082B1862311F420E001C022E081B15A
:1019F000862390E002C0959587954A95E2F780830B
:101A00000AC080916100862311F420E001C022E029
:101A100080B1EECF21E0822F089590E0883008F069
:101A200091E0892F0895982F88B3856088BB87B38C
:101A3000876087BB82E58DB981E08EB9983038F434
:101A400088B39295990F907E8F71892B88BB0895EA
:101A500088B38F7188BB1DB887B3887F87BB88B375
:101A6000887F88BB88B388BB0895EF92FF920F935D
:101A70001F93DF93CF93CDB7DEB764970FB6F8947B
:101A8000DEBF0FBECDBF7B012DB73EB72850304023
:101A90000FB6F8943EBF0FBE2DBFEDB7FEB731961F
:101AA0008E010F5F1F4FADB7BEB712961C930E93FA
:101AB000119722EC32E03383228329EC32E0358324
:101AC0002483978386830E94804E2DB73EB7285F7C
:101AD0003F4F0FB6F8943EBF0FBE2DBFC801B701F0
:101AE0000E94E02964960FB6F894DEBF0FBECDBF0A
:101AF000CF91DF911F910F91FF90EF900895CF92BA
:101B0000DF92EF92FF920F931F93DF93CF9300D05A
:101B1000CDB7DEB7982FF62EE42ED22EC32E8091AD
:101B20007204882309F4A8C08091DE02891711F09D
:101B300081E0A5C0662329F490E4941710F488E0AE
:101B40009EC00E94130D10916A04113049F01130AB
:101B500028F0123009F08EC08CE091C089E08FC06F
:101B600080916B04882361F481EB9BE063E774E070
:101B70000E94350D882311F086E081C010936B041C
:101B80000D2D1C2DECE4FE1681F1EF1538F0FF2031
:101B900069F0FBE4FF1609F071C036C08EE4F81658
:101BA00059F192E5F91609F069C039C0FF2487E6BA
:101BB0009BE0B801A7019E012F5F3F4F0E9456375F
:101BC000882309F059C089819A818E159F0540F4B8
:101BD0000E0D1F1D01501040F80180838EE04FC094
:101BE000892B09F04BC08DE04AC080917904F8013F
:101BF000808380917A0406C080917704F801808305
:101C00008091780481833AC080917B0480FF04C076
:101C100081E0F801808332C0F80111822FC08091E9
:101C20007304F80180838091730490917404A091EF
:101C30007504B0917604892F9A2FAB2FBB2781832F
:101C40008091730490917404A0917504B09176040E
:101C5000CD01AA27BB2782838091730490917404DD
:101C6000A0917504B09176048B2F9927AA27BB27E2
:101C7000838304C082E003C087E001C080E00F904E
:101C80000F90CF91DF911F910F91FF90EF90DF9018
:101C9000CF9008951F93182F80E00E94130D88EEB7
:101CA00093E024E131E0F9013197F1F70197D9F799
:101CB000183040F488B3912F9295990F907E8F71D0
:101CC000982B98BB81E097E062ED72E041E00E94C2
:101CD0007A1C882311F011E021C085ED92E00E946A
:101CE000792A882361F085ED92E00E94FF2A85ED34
:101CF00092E00E94792A882351F011E00DC083ED13
:101D000092E00E94792A85ED92E00E94792A109350
:101D1000DE021092D50210E00E94280D812F1F9143
:101D20000895DF92EF92FF920F931F93182FE62EE4
:101D3000D42EF22E80917204882349F4812F0E94C0
:101D40004A0E882309F07AC081E080937204809162
:101D5000DE02811711F081E074C087E08F1510F466
:101D600083E06FC0812F0E94130D88ECE81611F0FC
:101D700082E067C0802F90E002C0880F991FFA941C
:101D8000E2F70D2D0823013089F0013030F00530E5
:101D9000F1F0073089F184E054C087E69BE00E94AF
:101DA0008A3010926A0410926B0444C080916A04D5
:101DB000882309F045C087E69BE061EB7BE041E0CA
:101DC0000E9462358823E1F500936A0433C0809154
:101DD0006A048823A9F587E69BE061EB7BE048E095
:101DE0000E946235882351F587E69BE061EB7BE03A
:101DF00042E00E94623519C080916A04882301F58F
:101E000087E69BE061EB7BE042E00E94623588233D
:101E1000A9F44091710B5091720B6091730B70910A
:101E2000740B87E69BE00E941C22882339F482E031
:101E300080936A040E94280D80E003C087E001C0FF
:101E400086E01F910F91FF90EF90DF900895DF9251
:101E5000EF92FF920F931F93DF93CF9300D0CDB7F4
:101E6000DEB7082F162FD42E7901683C41F468ECB8
:101E70004FEF20E0F70100810E94910EB2C08091E7
:101E80007204882349F4802F0E944A0E882309F0A7
:101E9000A5C081E0809372048091DE02801711F06A
:101EA00081E09FC0112329F4F0E4FD1510F488E0CF
:101EB00098C00E94130D80916A04813031F0813006
:101EC00030F0823009F04FC03EC08AE08AC0103442
:101ED00021F01834F1F089E084C0A0E0B0E04D2D8D
:101EE00050E0F701EA0FFB1F8081882331F0A73013
:101EF000B10519F0A417B50719F4A457BB4F18C0C2
:101F0000FD01E457FB4F80831196A830B10549F7D6
:101F10002AC0A0E0B0E04D2D50E0F701EA0FFB1F12
:101F20008081882319F0A417B50721F4A757BB4F68
:101F30001C9219C0FD01E757FB4F80831196A33017
:101F4000B10559F710C0112311F082E04AC087E6AD
:101F50009BE0B7014D2D50E09E012F5F3F4F0E9447
:101F6000A8308823D9F50E94280D80916A0488231F
:101F7000B9F520E030E0F901E457FB4F8081882378
:101F800051F4E22F121664F520E030E04E2F552771
:101F900047FD509510C02F5F3F4F2830310559F74E
:101FA0001FC0F901EF54F44FD901A457BB4F8C91D6
:101FB00080832F5F3F4F241735079CF3FA01EF54BE
:101FC000F44F8EE2808380918904818380918A041A
:101FD000828380918B048383148202C087E001C0D6
:101FE00080E00F900F90CF91DF911F910F91FF90A4
:101FF000EF90DF9008950E94D6400895882311F055
:1020000084E00895862FBA010E94FB3C08950F9347
:102010001F93882311F084E006C0CB01BA01A90107
:1020200098010E94833C1F910F9108950F931F9375
:10203000882311F084E006C0CB01BA01A901980100
:102040000E942F3C1F910F910895882311F081E089
:1020500008950E94C93A0895882311F081E00895F7
:102060000E942C3C0895FC01238130E040E050E0C8
:10207000542F432F322F2227828190E0A0E0B0E03E
:10208000282B392B4A2B5B2B542F432F322F2227FF
:10209000818190E0A0E0B0E0282B392B4A2B5B2B0C
:1020A000542F432F322F2227808190E0A0E0B0E010
:1020B000282B392B4A2B5B2BB901CA010895CF93EA
:1020C000DF939C01FC014193BB27A72F962F852FFF
:1020D000E9018983CB01AA27BB278183472F552795
:1020E000662777274283DF91CF910895EF92FF9281
:1020F0000F931F93FC01DB015B969C915B9780E043
:102100005A962C915A9730E0822B932B7C0100E059
:1021100010E08081833091F455969C91559780E032
:1021200054962C9130E0822B932BA0E0B0E0DC01A0
:1021300099278827E82AF92A0A2B1B2BB701C801FF
:102140001F910F91FF90EF900895CF93DF93FC01C3
:10215000EB012A8F3B8F8081833029F4CA01AA27A3
:10216000BB278C8B9D8BDF91CF9108950F931F938D
:10217000CF93DF93AC01EB011986FC018689978927
:10218000A08DB18D0097A105B10509F444C080E090
:1021900090E0A0E0B0E03EE2FA01628D738D680F3E
:1021A000791FFB0120810196203281F0253009F44E
:1021B00025EE8930910529F4FE01EA0FFB1F3187D6
:1021C0001196FE01EA0FFB1F218711968B309105B6
:1021D00019F7AC0FBD1F19961C92DA015A96ED91B2
:1021E000FC915B97838588875A960D911C915B972C
:1021F000C8014C960E943310688379838A839B833D
:10220000C80146960E9433107F836E83BC018827E5
:1022100099277D836C83DF91CF911F910F91089552
:10222000CF93DF93EC01A881B981109701F1FD01F3
:1022300001C031968081813248F08A33D1F78C9188
:1022400090E0C0978A30910590F405C080919A047F
:10225000282F30E00EC01196AE17BF0741F4823030
:10226000910528F49C013196F983E88302C02FEF91
:102270003FEFC901DF91CF910895DF93CF9300D055
:10228000CDB7DEB79A838983CE0101960E941011E3
:1022900097FF02C08BE003C080939A0480E00F9008
:1022A0000F90CF91DF9108952F923F924F925F92BE
:1022B0006F927F928F929F92AF92BF92CF92DF9256
:1022C000EF92FF920F931F93DF93CF93CDB7DEB7BB
:1022D000C854D0400FB6F894DEBF0FBECDBF9A876A
:1022E0008987E62E49015A0126960FAF2697279631
:1022F0001FAF2797CE0109960E9410116C0197FF1E
:1023000002C08BE0BCC5FC01EE0FFF1FEC56FB4F7B
:102310000190F081E02D309709F01082CFA68C2D2E
:102320000E94251080FF02C083E0A9C582FF02C081
:102330008AE0A5C58C2D63E0AE014F5F5F4F0E9420
:10234000FE0F8823F1F429813A814B815C812115AC
:10235000310541055105A9F0213000E8300700E0C2
:10236000400700E0500768F4DA01C9010197A109AC
:10237000B10982239323A423B5230097A105B105B6
:1023800041F081E090E0A0E0B0E089839A83AB83E4
:10239000BC8381149104A104B104A1F010E0811662
:1023A00012E0910610E0A10610E0B10608F462C543
:1023B00021E0821620E0920620E0A20621E0B2068B
:1023C00008F058C5D501C4010197A109B1098821B8
:1023D0009921AA21BB210097A105B10509F04AC5A1
:1023E0008F2D869590E02C01662477244FA258A665
:1023F00069A67AA6F9E0440C551C661C771CFA9570
:10240000D1F74BA65CA66DA67EA6411451046104CB
:10241000710409F431C58FA561E0AE014B5F5F4FD8
:102420000E94FE0F882309F029C52E2D30E0890176
:102430000870107023961FAF0EAF2397E3FC09C0FE
:102440008FE390E0A0E0B0E08B8F9C8FAD8FBE8FCC
:1024500004C01B8E1C8E1D8E1E8E6D817E818F8111
:1024600098854B8C5C8C6D8C7E8C6415750586050F
:10247000970508F401C57B018C01E418F5080609ED
:1024800017092196ECAEFDAE0EAF1FAF2197D80114
:10249000C70180389105A105B10508F4EDC46501B7
:1024A0005401E9E0D694C794B794A794EA95D1F77C
:1024B00091E8A916B104C104D10408F0DBC4D90124
:1024C000A270B070BCAFABAF21FF07C0C90187706D
:1024D0009070029739F020FF05C020FFCBC4B2E016
:1024E000B8AB02C0E3E0E8AB21964CAC5DAC6EAC9F
:1024F0007FAC219771E176946794579447947A95CD
:10250000D1F74F86588A698A7A8A21966CAC7DAC5D
:102510008EAC9FAC21976CE09694879477946794E7
:102520006A95D1F76B867C868D869E8689819A8195
:10253000AB81BC818C019D01015010402040304096
:102540000FAB18AF29AF3AAF22273327A901281BB9
:10255000390B4A0B5B0B2BAB3CAB4DAB5EAB38A9DD
:10256000333009F070C002C043E048ABA114B1049D
:10257000C104D10429F0ABA2BCA2CDA2DEA227C027
:10258000ECE2F3E081E090E0A0E0B0E08BA39CA35C
:10259000ADA3BEA30CC04BA05CA06DA07EA0440C5C
:1025A000551C661C771C4BA25CA26DA27EA280818A
:1025B0009181009761F03296A0E0B0E06F84788856
:1025C00089889A88681679068A069B0620F72196DC
:1025D0006CAD7DAD8EAD9FAD21972BA13CA14DA1E2
:1025E0005EA10E94574C79018A01D801C701865F1C
:1025F0009F4FA040B04080509040AF4FBF4008F088
:102600003BC41701280142E0220C331C441C551C1A
:102610004A95D1F787E092E0A0E0B0E0280E391E9D
:102620004A1E5B1E39E056944794379427943A9596
:10263000D1F720E2E22EF12C012D112D1B8A1C8AEC
:102640001D8A1E8A89C0A114B104C104D10429F0D5
:10265000ABA2BCA2CDA2DEA228C0EAE3F3E091E0E7
:10266000492E512C612C712C4BA25CA26DA27EA232
:102670000CC06BA07CA08DA09EA0660C771C881C53
:10268000991C6BA27CA28DA29EA280819181009751
:1026900061F03296A0E0B0E0EB84FC840D851E85ED
:1026A000E816F9060A071B0720F721966CAD7DADE9
:1026B0008EAD9FAD21972BA13CA14DA15EA10E94A3
:1026C000574CC901DA01863F0FE0900700E0A007F0
:1026D00000E0B00758F09C01AD012E5F3F4F4F4F17
:1026E0005F4F220F331F441F551F18C09C01AD01BF
:1026F000220F331F441F551F280F391F4A1F5B1F0E
:102700002F5F3F4F4F4F5F4F569547953795279512
:102710002D5F3F4F4F4F5F4F11E018ABFFEF2F2E54
:10272000F1E03F2E412C512C220E331E441E551E2B
:10273000E9E05694479437942794EA95D1F771E0ED
:10274000E72EF12C012D112D20E230E040E050E089
:102750002B8B3C8B4D8B5E8B8B8D9C8DAD8DBE8D75
:102760008E0D9F1DA01FB11F8F8B988FA98FBA8FC1
:102770002B893C894D895E89220D331D441D551DD1
:10278000280F391F4A1F5B1F8FA998ADA9ADBAAD9D
:10279000820F931FA41FB51F6BA87CA88DA89EA8AD
:1027A00086219721A821B921821B930BA40BB50B7D
:1027B00068A9633089F4E80EF91E0A1F1B1F6F8891
:1027C000788C898C9A8C680E791E8A1E9B1E6F8A63
:1027D000788E898E9A8E04C0280E391E4A1E5B1E82
:1027E0008BA19CA1ADA1BEA164E0880F991FAA1F77
:1027F000BB1F6A95D1F76B8C7C8C8D8C9E8C861957
:102800009709A809B909820F931FA41FB51F219624
:102810002CAD3DAD4EAD5FAD2197281739074A0766
:102820005B0708F429C3CA01B9016E197F09800B3F
:10283000910B62197309840995096B887C888D88CE
:102840009E8866197709880999092BA13CA14DA199
:102850005EA10E94574C39014A0128A92330F9F49E
:1028600036EF63163FEF730630E0830630E09306E1
:1028700008F07EC0A114B104C104D10409F0FCC267
:10288000ABA0BCA0CDA0DEA0D694C794B794A7946B
:10289000A114B104C104D10409F068CEEDC248A965
:1028A000423009F058C056EF65165FEF750650E0EC
:1028B000850650E0950680F1A114B104C104D1044D
:1028C00081F48BA19CA1ADA1BEA1880F991FAA1F65
:1028D000BB1F81349105A105B10518F45C016D01A0
:1028E000B2CE8BAD9CAD892B09F03ECEA114B104C4
:1028F000C104D10409F0C0C2ABA0BCA0CDA0DEA031
:10290000AA0CBB1CCC1CDD1C91E8A916B104C104A7
:10291000D10408F498CEB0C2A6EF6A16AFE07A06EA
:10292000A0E08A06A0E09A0618F5A114B104C1043B
:10293000D10409F0A1C2ABA0BCA0CDA0DEA0AA0C1E
:10294000BB1CCC1CDD1CB1E8AB16B104C104D10426
:1029500008F479CE91C2E8A9E13051F4F6EF6F1690
:10296000FFE07F06F0E08F06F0E09F0608F084C2EB
:102970009BA1610124964FAE249725965FAE2597C3
:102980002696AFAC26972796BFAC279721962CADFD
:102990003DAD4EAD5FAD21972D833E834F8358876C
:1029A000F501A50140505E4F29965FAF4EAF2997C4
:1029B00011922996AEADBFAD2997EA17FB07C1F773
:1029C000D501EFEDF2E081918D9322E0EA3EF2072E
:1029D000D1F7D5011B961C921B9782E01C968C9315
:1029E0001C971D969C931D971E96EC921E971F9602
:1029F000FC921F9781E050968C93F5017196B8A9CF
:102A0000B33019F080E092E002C080E090E0808373
:102A100091834D815E816F8178854030E0E05E0773
:102A2000E1E06E07E0E07E0738F4D50153964C9361
:102A3000539754965C9304C0C50180960E945F1022
:102A400088EFF501858B8FE3808F118E8FEF828F5A
:102A5000138EC5014C964B8D5C8D6D8D7E8D0E94C5
:102A60005F10F8A9F33009F048C0C5018D5B9F4F96
:102A700040E050E061E278E40E945F10C501849676
:102A8000A60124966FAD249725967FAD25970E94C9
:102A90005F10C5018C9642E050E060E070E00E945B
:102AA0005F1081E0D501D0968C93D097D1961C927F
:102AB000D19786E0D2968C93D297D3961C92E0E47D
:102AC000F0E0AE0EBF1E80E8D5018C93E2E0F0E0AE
:102AD000AE0EBF1E89E2D5018C93EEEBFFEFAE0E7A
:102AE000BF1ED501A95BBF4FEBEEF2E081918D9344
:102AF00002E0EE3FF007D1F720C0C501879640E025
:102B000050E061E278E40E945F10D5015696CC92C5
:102B100056975796DC92579780E894968C939497A3
:102B200089E296968C9396979B96EFEFF2E08191CF
:102B30008D9303E0E231F007D1F7950122503E4F2B
:102B40003AAB29AB85E5D9018C938AEA11968C932F
:102B50008FA5B5012B8D3C8D4D8D5E8D01E010E074
:102B60000E940710882309F089C1B8A9B33009F081
:102B70005BC02B8D3C8D4D8D5E8D2A5F3F4F4F4F3F
:102B80005F4F8FA5B5010E940710F501119229969C
:102B9000EEACFFAC2997EE15FF05C1F7C50142E584
:102BA00052E561E671E40E945F10C5018C519E4FB1
:102BB00042E752E761E471E60E945F100894610801
:102BC000710881089108C50188519E4FB401A30185
:102BD0000E945F10C50184519E4F42E050E060E0CA
:102BE00070E00E945F1085E5A9A9BAA98C938AEAD2
:102BF00011968C932B8D3C8D4D8D5E8D295F3F4FB3
:102C00004F4F5F4F8FA5B50101E010E00E94071004
:102C10002B8D3C8D4D8D5E8D2F5F3F4F4F4F5F4F06
:102C20008FA5B5010E9407108BA59CA5F5011192F7
:102C30000197E9F7B8A9B330B1F4C50148EF5FEFE8
:102C40006FEF7FEF0E945F10C50104964FEF5FEFBB
:102C50006FEF7FEF0E945F10C50108964FEF5FEFA7
:102C60006FEF7FE00DC0E8A9E13029F048EF5FEF9A
:102C70006FEF7FEF04C048EF5FEF6FEF70E0C501CB
:102C80000E945F106F88788C898C9A8C6F8E78A2E6
:102C900089A29AA242013101740163010FA118A512
:102CA00029A53AA5061517052805390510F4680168
:102CB00079018FA5B5012F8D38A149A15AA18601AF
:102CC0000E940710882309F0D9C0F50111922996B6
:102CD0002EAD3FAD2997E217F307C1F78F8D98A16D
:102CE000A9A1BAA18C0D9D1DAE1DBF1D8F8F98A3EC
:102CF000A9A3BAA36C187D088E089F0869F698A945
:102D0000933029F0CB88DC88ED88FE8804C0CBA006
:102D1000DCA0EDA0FEA0360147010FA118A529A552
:102D20003AA50C151D052E053F0510F43801490183
:102D30008FA5B5012F8D38A149A15AA183010E9409
:102D40000710882309F09AC0C618D708E808F908C0
:102D500069F02F8D38A149A15AA1260D371D481DB4
:102D6000591D2F8F38A349A35AA3D5CF38A9333083
:102D700011F49CE011C08D819E81AF81B885805097
:102D80009040A140B04010F096E006C058A95230E3
:102D900011F091E001C094E02396AEADBFAD239752
:102DA000AB2B09F05EC0F501119229964EAC5FACD9
:102DB0002997E415F505C1F785E5A9A9BAA98C936A
:102DC0008AEA11968C93AEEBCA2EA1E0DA2ECA0CD9
:102DD000DB1CF601108281E081838283138294835D
:102DE0006D817E818F8198854B8C5C8C6D8C7E8C07
:102DF000640D751D861D971D21EC3EE340E050E0FB
:102E00000E94574C79018A018EEFD60115968C935A
:102E1000D801C701F2E0B695A79597958795FA95E1
:102E2000D1F78F63F60186832783C60108964B8D01
:102E30005C8D6D8D7E8D0E945F104D815E816F81F6
:102E40007885C6010C960E945F108FA5B50120E021
:102E500030E040E050E001E010E00E9407108823DD
:102E600069F48FA560E040E050E00E94FE0F8823E7
:102E700031F004C083E103C08EE001C081E0C85B93
:102E8000DF4F0FB6F894DEBF0FBECDBFCF91DF91FD
:102E90001F910F91FF90EF90DF90CF90BF90AF9078
:102EA0009F908F907F906F905F904F903F902F906A
:102EB00008958F929F92AF92BF92CF92DF92EF923E
:102EC000FF920F931F93CF93DF93EC018B818823A5
:102ED000C1F1B3E3CB2ED12CCC0EDD1E2FA538A92A
:102EE00049A95AA98981B60101E010E00E940710A2
:102EF000882311F081E026C01B82EFA4F8A809A95D
:102F00001AA92B8D3C8D4D8D5E8D8BA19CA1ADA101
:102F1000BEA147015801881A990AAA0ABB0A82165B
:102F20009306A406B50668F48A81823051F42E0D0A
:102F30003F1D401F511F8981B60101E010E00E9432
:102F4000071080E0DF91CF911F910F91FF90EF90DC
:102F5000DF90CF90BF90AF909F908F9008958F9209
:102F60009F92AF92BF92CF92DF92EF92FF920F9318
:102F70001F93CF93DF93EC017A018B010E945917C5
:102F8000882309F059C08EEF9FEFAFEFBFEFE80E37
:102F9000F91E0A1F1B1F8F89988DA98DBA8D029764
:102FA000A109B109E816F9060A071B0720F0CC248D
:102FB000DD24760112C029853A8540E050E0C80141
:102FC000B7010E94114C6B017C018BA59CA5ADA59E
:102FD000BEA5C80ED91EEA1EFB1ECFA6D8AAE9AA16
:102FE000FAAA13E3812E912C8C0E9D1EF40180E031
:102FF00092E011920197E9F7AA24BB2403C0089438
:10300000A11CB11C89859A85A816B90678F495018A
:1030100040E050E02C0D3D1D4E1D5F1D8981B40127
:1030200001E010E00E940710882349F320E0898521
:103030009A85A816B90609F021E0822FDF91CF9179
:103040001F910F91FF90EF90DF90CF90BF90AF90C6
:103050009F908F9008950F931F93CF93DF93EC0170
:103060000E945917882309F056C08881833009F0DF
:103070004AC08C81813009F046C08E010D5C1F4F23
:10308000F80180E092E011920197E9F7CF5CDD4F03
:1030900085E589938AEA8883C253D240C80142E514
:1030A00052E561E671E40E945F10CE01895E9D4F9A
:1030B00042E752E761E471E60E945F104F8558894C
:1030C00069897A89CE01855E9D4F0E945F104B858C
:1030D0005C856D857E85CE01815E9D4F0E945F106F
:1030E0002F8D38A149A15AA12F5F3F4F4F4F5F4FFE
:1030F0002FA738AB49AB5AAB8981B80101E010E08A
:103100000E9407101C82898160E040E050E00E942C
:10311000FE0F811181E0DF91CF911F910F910895F2
:103120000F931F93CF93DF93EC018B01009799F0DE
:10313000E881F981309779F08081882361F02A81D4
:103140003B81858196812817390729F481810E9466
:103150002C1080FF0CC080E090E029E0F801918302
:103160008083822FDF91CF911F910F9108958881E5
:10317000998120E0F3CF0F931F93DF93CF9300D07B
:10318000CDB7DEB78C01BE016F5F7F4F0E949018F4
:10319000882319F4F801118210820F900F90CF91BB
:1031A000DF911F910F910895AF92BF92CF92DF925E
:1031B000EF92FF920F931F93DF93CF930F92CDB7B0
:1031C000DEB75C016A017B01FC0187A590A9A1A97A
:1031D000B2A9481759076A077B0711F490E01FC08E
:1031E000C5010E945917982F8823C9F4B5016D5C59
:1031F0007F4FF5018181A701960101E010E09983DD
:103200000E9416109981882329F0CC24CA94DC2CC2
:10321000760191E0F501C7A6D0AAE1AAF2AA892F0A
:103220000F90CF91DF911F910F91FF90EF90DF9062
:10323000CF90BF90AF900895CF93DF93EC011B82A6
:103240008FEF9FEFAFEFBFEF8FA798ABA9ABBAABF4
:10325000CE010E94D418882311F084E042C0CE5CD5
:10326000DD4F988180E02A91C153D24030E0822B1B
:10327000932B85559A4A11F083E033C08BA9893E80
:1032800029F08B3E69F58DA9803951F5DE01A759EA
:10329000BF4FE3E1F3E08D91282F30E08191281BAF
:1032A000310983E0E631F80719F0232BA1F302C0BE
:1032B000232BA1F0DE01AB57BF4FE7E1F3E08D9187
:1032C000282F30E08191281B310983E0EC31F80789
:1032D00019F0232BA1F304C0232B11F480E001C0CB
:1032E00082E0DF91CF9108953F924F925F926F926B
:1032F0007F928F929F92AF92BF92CF92DF92EF9286
:10330000FF920F931F93DF93CF93CDB7DEB76897EC
:103310000FB6F894DEBF0FBECDBF6B01B42EDB013C
:103320001D921C920E9410117C0197FF02C08BE03D
:10333000C9C2FC01EE0FFF1FEC56FB4F008111814B
:103340000115110511F48CE0BDC2F6011183008353
:103350009EEFD92EDB20D8018C91882361F0119645
:103360008C910E942C1080FD06C0DD2009F4A7C2BC
:1033700082FDA3C2A4C2F8011082E1828E2D0E94B8
:10338000251080FF02C083E09DC2DD2011F082FD88
:1033900094C2C80140E050E060E070E00E941C1957
:1033A000823029F01D8A1E8A1F8A188E54C06E0131
:1033B0000894C11CD11C56018EEBE82E81E0F82E3A
:1033C00023E330E0E20EF31EF801EE0DFF1D8DEC5D
:1033D0009FEFE80EF91E8481882329F460E070E0F5
:1033E00080E090E004C0CF0108960E943310D50120
:1033F0006D937D938D939D935D01E0E1F0E0EE0E82
:10340000FF1EFEEFEF16F1E0FF06D1F6B1E1EB2E65
:10341000F12CEC0EFD1ED6018D919D910D90BC916D
:10342000A02D8D8B9E8BAF8BB88F0097A105B1051A
:1034300011F483E009C0C8014D895E896F89788DD8
:103440000E941C19823070F0E4E0F0E0CE0EDF1E26
:10345000CE14DF0401F7843011F481E033C28230EE
:1034600008F02FC2D801DF969C91DF9780E0DE96AE
:103470002C9130E0822B932B8050924009F021C296
:10348000065B1F4FF801908180E0D8012E918D01DD
:103490000954104030E0822B932B2C0166247724B2
:1034A000411451046104710439F4C801895A9F4FD1
:1034B0000E9433102B013C01F801438E548E658E1F
:1034C000768E0D5B1F4FD8013C9003541040F801DD
:1034D0003282832D8150823008F0F3C1005C1F4F8F
:1034E000D8018C9100541040282F30E0F801328729
:1034F00021872115310509F4E4C1C901019782230F
:103500009323892B09F0DDC10B5B1F4FD8019C91E0
:1035100080E0F80122918F0104541040C22EDD2476
:10352000C82AD92AD8011896DC92CE921797C601DC
:103530008F709070892B09F0C4C1095B1F4FF8018F
:10354000908180E0D8012E918D010654104030E02A
:10355000822B932B4C01AA24BB2481149104A10437
:10356000B10439F4C8018D5A9F4F0E9433104B01AA
:103570005C010E5B1F4FF801908180E0D8012E9115
:103580008D0101541040E22EFF24E82AF92AE114AB
:10359000F10409F496C1232D30E040E050E0C3016E
:1035A000B2010E94114C698B7A8B8B8B9C8B27010B
:1035B00066247724A4E0D694C794AA95E1F7EE2474
:1035C000FF24C40CD51CE61CF71CC60ED71EE81E33
:1035D000F91E8C149D04AE04BF0408F472C18C184B
:1035E0009D08AE08BF08F8012185328540E050E013
:1035F000C501B4010E94574CC901DA010097A10529
:10360000B10509F45EC1863FFFEF9F07FFEFAF07EB
:10361000FFE0BF0708F055C1863F2FEF920720E07B
:10362000A20720E0B20718F0F3E03F2E0DC0863F5E
:103630003FE0930730E0A30730E0B30718F43324EA
:10364000339402C0E2E03E2E72E0872E912CA12C32
:10365000B12C880E991EAA1EBB1ED80157968D92BA
:103660009D92AD92BC925A978D899E89AF89B88DF3
:10367000F801878F90A3A1A3B2A39C01AD01240DF3
:10368000351D461D571DD80193962D933D934D939F
:103690005C9396978D899E89AF89B88DC80ED91E87
:1036A000EA1EFB1ED8019B96CD92DD92ED92FC9214
:1036B0009E97B3E03B1661F5025A1F4FF8019081C7
:1036C00080E0D8012E918D010D55104030E0822B05
:1036D000932B892B09F0F5C0F80187819085892B00
:1036E00009F0EFC0C801815A9F4F0E943310D801E2
:1036F00097966D937D938D939C939A97A5019401D2
:1037000062E0220F331F441F551F6A95D1F737C05F
:10371000F80187819085892B09F4D3C089899A891A
:10372000AB89BC89280F391F4A1F5B1FD8019796A8
:103730002D933D934D935C939A97D501C401880FC7
:10374000991FAA1FBB1FE2E03E1619F49C01AD01B0
:1037500016C09C01AD01280D391D4A1D5B1D5695F3
:1037600047953795279581E090E0A0E0B0E088226A
:103770009922AA22BB22280D391D4A1D5B1D21500A
:103780003E4F4F4F5F4F89E05695479537952795A8
:103790008A95D1F7F801838D948DA58DB68D82170A
:1037A0009307A407B50708F48CC08FEF9FEFAFEF26
:1037B000BFEF8787908BA18BB28B83879487A58778
:1037C000B68780E88483F3E03F1609F061C00C59A6
:1037D0001F4FD8019C9180E0F80122918F01035680
:1037E000104030E0822B932B019709F051C08D8956
:1037F0009E89AF89B88D0196A11DB11D8D8B9E8BC1
:10380000AF8BB88FC8014D895E896F89788D0E9412
:10381000D418882309F03CC0D80114961C920E5C81
:103820001D4FF801908180E0D8012E918D01015348
:10383000124030E0822B932B85559A4A49F5C801F6
:10384000C3960E943310625572458146914401F53A
:10385000C801895E9D4F0E943310625772478144B0
:103860009146B1F4C801855E9D4F0E943310D80186
:103870001F966D937D938D939C935297C801815EA3
:103880009D4F0E943310F801638774878587968760
:10389000D8013C928091980490919904019690935C
:1038A00099048093980416969C938E931597F8012B
:1038B000138A148A158A168A02C08AE003C080E03F
:1038C00001C08DE068960FB6F894DEBF0FBECDBF85
:1038D000CF91DF911F910F91FF90EF90DF90CF90EC
:1038E000BF90AF909F908F907F906F905F904F9020
:1038F0003F9008951F93DF93CF9300D000D000D066
:10390000CDB7DEB79C838B837E836D83142F7A8340
:103910006983CE0101960E941011DC0197FF02C05D
:103920008BE022C0FC01EE0FFF1FEC56FB4F019015
:10393000F081E02D309709F01082EB81FC81309707
:1039400009F01082AA0FBB1FAC56BB4FED93FC933E
:10395000112311F480E008C0CE010596BE016D5F11
:103960007F4F40E00E94741926960FB6F894DEBF90
:103970000FBECDBFCF91DF911F910895BF92CF921F
:10398000DF92EF92FF920F931F93CF93DF93FC018F
:103990007A018B01C081D1814230510561057105E9
:1039A00008F4B3C08F89988DA98DBA8D481759072F
:1039B0006A077B0708F0A9C08881823009F45AC0E1
:1039C000833009F47CC0813009F09FC06A01D6942D
:1039D000C794C40ED51EA601452F5527469560E015
:1039E00070E08BA19CA1ADA1BEA1480F591F6A1F19
:1039F0007B1FCE010E94D418882309F08BC0F601EA
:103A0000F170EC0FFD1FB3A80894C11CD11CA601D6
:103A1000452F5527469560E070E08BA19CA1ADA194
:103A2000BEA1480F591F6A1F7B1FCE010E94D418E8
:103A3000882309F06FC06B2D70E08FEF91E0C822F2
:103A4000D922CC0DDD1D9BA980E0682B792BC70105
:103A500081709070892B39F0B4E076956795BA95AE
:103A6000E1F79B0129C09B0140E050E03F704070AE
:103A7000507054C0452F562F672F77278BA19CA1DC
:103A8000ADA1BEA1480F591F6A1F7B1FCE010E9426
:103A9000D418882309F03EC0EE0CFF1C001F111F34
:103AA000C7019170FE01E80FF91F34A920E083A936
:103AB00090E0822B932B9C0140E050E02FC0E7E088
:103AC0007695679557954795EA95D1F78BA19CA177
:103AD000ADA1BEA1480F591F6A1F7B1FCE010E94D6
:103AE000D4188823B9F452E0EE0CFF1C001F111FFC
:103AF0005A95D1F7C7019170C3968C0F9D1F0E94F4
:103B000033109B01AC015F7009C021E030E040E060
:103B100050E004C02FEF3FEF4FEF5FEFB901CA0154
:103B2000DF91CF911F910F91FF90EF90DF90CF9099
:103B3000BF9008952F923F924F925F926F927F9223
:103B40008F929F92AF92BF92CF92DF92EF92FF92AD
:103B50000F931F93CF93DF932C013A014B01FC018C
:103B6000C081D1814030F0E05F07F0E26F07F0E004
:103B70007F0708F0D8C0DB01CA018F719070A07078
:103B8000B0700097A105B10509F0CDC0F2014687DC
:103B90005787608B718BE680F78000851185E11473
:103BA000F1040105110551F58881833040F08FA1A2
:103BB00098A5A9A5BAA50097A105B105E9F4A401A6
:103BC0009301F5E05695479537952795FA95D1F7E6
:103BD0008F819885A0E0B0E0281739074A075B0776
:103BE00008F0A1C08FA198A5A9A5BAA5F201868B5E
:103BF000978BA08FB18F6FC07C018D0189859A85CD
:103C00005C01CC24DD24E9E0AA0CBB1CCC1CDD1C2F
:103C1000EA95D1F7120126C0C101B801A7010E949F
:103C2000BE1C7B018C016F3FFFEF7F07FFEF8F070B
:103C3000FFEF9F0711F481E077C082E0E816F104FE
:103C40000105110508F46FC08F89988DA98DBA8D73
:103C5000E816F9060A071B0708F065C06A187B0812
:103C60008C089D086A147B048C049D04A8F67EEFE2
:103C7000A72E7FEFB72E7FEFC72E7FEFD72EAE0C8C
:103C8000BF1CC01ED11E8F89988DA98DBA8D029739
:103C9000A109B109A816B906CA06DB0628F020E07A
:103CA00030E040E050E012C029853A8540E050E025
:103CB000C601B5010E94114C9B01AC018BA59CA5CE
:103CC000ADA5BEA5280F391F4A1F5B1FF201268B29
:103CD000378B408F518FF201E28AF38A048B158B68
:103CE00026893789408D518D2115310541055105B2
:103CF000D1F0D401C30169E0B695A7959795879552
:103D00006A95D1F7820F931FA41FB51F868B978BDF
:103D1000A08FB18FC3019170C396C80FD91FD38FE5
:103D2000C28F80E001C082E0DF91CF911F910F919F
:103D3000FF90EF90DF90CF90BF90AF909F908F90CB
:103D40007F906F905F904F903F902F9008957F925B
:103D50008F929F92AF92BF92CF92DF92EF92FF929B
:103D60000F931F93CF93DF93EC016A017B0148010E
:103D70005901423051056105710508F4DFC08F8992
:103D8000988DA98DBA8D481759076A077B0708F0E7
:103D9000D5C08881823009F472C0833009F491C0A3
:103DA000813009F0CBC08A0116950795040F151FC5
:103DB000A801452F5527469560E070E08BA19CA196
:103DC000ADA1BEA1480F591F6A1F7B1FCE010E94E3
:103DD000D418782E882309F0B3C0D801B1700F5FD2
:103DE0001F4F91E0C922DD24C114D10451F0FE011E
:103DF000EA0FFB1F83A98F70982D9295907F982BC7
:103E000001C0982DAC0FBD1FD3969C9381E08B838E
:103E1000A801452F5527469560E070E08BA19CA135
:103E2000ADA1BEA1480F591F6A1F7B1FCE010E9482
:103E3000D418782E882309F083C03FEFE32E31E0B9
:103E4000F32EE022F122CD2849F024E0B694A79485
:103E5000979487942A95D1F7E82D0BC0FE01EE0DBB
:103E6000FF1DE3A9E07FBB27AB2D9A2D892D8F7015
:103E7000E82BEC0EFD1ED701D396EC935CC0452FCA
:103E8000562F672F77278BA19CA1ADA1BEA1480F0C
:103E9000591F6A1F7B1FCE010E94D418782E8823D9
:103EA00009F04EC0CC0CDD1CEE1CFF1CF601F170BD
:103EB000DE01AE0FBF1FD3968C92D397FD0194AA5B
:103EC0003AC017E076956795579547951A95D1F7BB
:103ED0008BA19CA1ADA1BEA1480F591F6A1F7B1FDA
:103EE000CE010E94D418782E882351F58FEF9FEFD2
:103EF000AFEFBFE088229922AA22BB22B2E0CC0C0D
:103F0000DD1CEE1CFF1CBA95D1F7860111700D5C0B
:103F10001F4F0C0F1D1FC8010E943310607070707E
:103F20008070907F862A972AA82AB92AC801B501ED
:103F3000A4010E945F1081E08B8302C0A2E07A2E70
:103F4000872DDF91CF911F910F91FF90EF90DF9020
:103F5000CF90BF90AF909F908F907F9008954F9299
:103F60005F926F927F928F929F92AF92BF92CF9209
:103F7000DF92EF92FF920F931F93CF93DF938C0109
:103F80002A013B01FC01C081D18141155105610528
:103F9000710599F48B849C84AD84BE848114910452
:103FA000A104B10451F18F89988DA98DBA8D88161D
:103FB0009906AA06BB0608F525C00E94BE1C9B01F7
:103FC000AC01623071058105910508F4EEC06F3FC8
:103FD000FFEF7F07FFEF8F07FFEF9F0709F4F3C0A5
:103FE0008F89988DA98DBA8D281739074A075B07E5
:103FF00008F4E9C05301420105C0B1E08B2E912CB9
:10400000A12CB12C8F859889A989BA890097A1051F
:10401000B10509F4D4C084149504A604B70409F0CA
:104020004AC0750164010894C11CD11CE11CF11C3B
:104030008F89988DA98DBA8DC816D906EA06FB0618
:1040400028F0A2E0CA2ED12CE12CF12CC801B70136
:10405000A6010E94BE1C9B01AC0161307105810567
:10406000910509F4B0C02F3F8FEF38078FEF480755
:104070008FEF580709F4A7C02115310541055105F7
:10408000A9F02B853C854D855E85223031054105A3
:10409000510588F08F89988DA98DBA8D2817390719
:1040A0004A075B0740F449015A0105C0C114D10415
:1040B000E104F104E9F5750164010894C11CD11C07
:1040C000E11CF11C8F89988DA98DBA8DC816D9066F
:1040D000EA06FB0660F0E2E08E169104A104B1044A
:1040E00008F46DC0F2E0CF2ED12CE12CF12CC801E8
:1040F000B701A6010E94BE1C9B01AC0161157105B0
:1041000081059105A9F0613071058105910509F4DA
:104110005AC06F3FFFEF7F07FFEF8F07FFEF9F074B
:1041200009F451C0C814D904EA04FB0431F647C0AD
:10413000CE01B701A6010FEF1FEF2FEF3FEF0E9457
:10414000A71E882381F5411451046104710449F0CC
:10415000CE01B301A201970186010E94A71E882308
:1041600011F5CB86DC86ED86FE862F853889498958
:104170005A898F89988DA98DBA8D0297A109B109A5
:1041800082179307A407B50740F021503040404004
:1041900050402F87388B498B5A8B8C8181608C8360
:1041A000A701960110C0813029F021E030E040E005
:1041B00050E009C02FEF3FEF4FEF5FEF04C020E06A
:1041C00030E040E050E0B901CA01DF91CF911F918A
:1041D0000F91FF90EF90DF90CF90BF90AF909F90A6
:1041E0008F907F906F905F904F9008956F927F9225
:1041F0008F929F92AF92BF92CF92DF92EF92FF92F7
:104200000F931F93CF93DF93EC013B01C880D980BC
:104210002E853F8548895989EE88FF88088D198D3C
:10422000E114F1040105110509F4F2C0E0E28E2E5B
:10423000912CA12CB12C820E931EA41EB51E80E0E1
:10424000881680E0980680E2A80680E0B80608F0AC
:10425000DFC0D501C4019170A070B0700097A105B6
:10426000B10509F0C8C00894E11CF11C011D111D25
:10427000EE8AFF8A088F198FEA88FB880C891D89CE
:10428000E114F10401051105B1F4A501940175E0F3
:1042900056954795379527957A95D1F7D601179674
:1042A0008D919C911897A0E0B0E0281739074A0734
:1042B0005B07E0F5A0C0F601818592850197A0E03B
:1042C000B0E0A501940169E056954795379527958B
:1042D0006A95D1F782239323A423B5230097A105E0
:1042E000B10509F088C0CE01B801A7010E94BE1C2B
:1042F0007B018C01623071058105910508F48AC04B
:104300008FEFE8168FEFF8068FEF08078FEF18078B
:1043100009F482C0F6018789908DA18DB28DE816CF
:10432000F9060A071B0778F1672829F41E8A1F8AF5
:10433000188E198E6DC04A895B896C897D89CE0182
:104340000E94AF1F7B018C016115710581059105EC
:1043500011F487E062C0613071058105910509F4AF
:1043600059C08FEFE8168FEFF8068FEF08078FEF31
:10437000180709F451C0C601B801A7010E94AF1780
:10438000882309F049C0EA8AFB8A0C8B1D8B8EEFCB
:104390009FEFAFEFBFEFE80EF91E0A1F1B1FF601DC
:1043A0008789908DA18DB28D0297A109B109E81678
:1043B000F9060A071B0728F020E030E040E050E053
:1043C00016C0D60119962D913C911A9740E050E005
:1043D000C801B7010E94114C9B01AC01F60183A5F5
:1043E00094A5A5A5B6A5280F391F4A1F5B1F2E8BC4
:1043F0003F8B488F598F8E869F86A88AB98AC401C1
:104400009170C396C80ED91EDB8ECA8E80E005C09F
:1044100084E003C082E001C081E0DF91CF911F9171
:104420000F91FF90EF90DF90CF90BF90AF909F9053
:104430008F907F906F9008952F923F924F925F924E
:104440006F927F928F929F92AF92BF92CF92DF92A4
:10445000EF92FF920F931F93DF93CF93CDB7DEB709
:1044600027970FB6F894DEBF0FBECDBF6C017A015F
:104470008B018F832D2CBE016F5F7F4F0E949018A0
:10448000382E882309F0AFC1D6011F963C901F97A4
:10449000332009F0A8C11A968D909D90AD90BC90E4
:1044A0001D978E149F04A006B10620F41E968C91D1
:1044B00081FF02C047015801F601208931894289F4
:1044C0005389D60150961D921D921D921C925397AE
:1044D00081149104A104B10409F44BC1E981FA816A
:1044E000818592852C016624772419E0440C551CA3
:1044F000661C771C1A95D1F7211531054105510528
:1045000009F43FC0DA01C9010197A109B1098B8300
:104510009C83AD83BE83C501B4016150704080406F
:104520009040A30192010E94574C79018A016B814E
:104530007C818D819E81A30192010E94574CE216DD
:10454000F30604071507E8F088279927DC0184198A
:104550009509A609B7092B813C814D815E81822393
:104560009323A423B523F601808B918BA28BB38B6D
:10457000881A990AAA0ABB0A4489558966897789E3
:1045800031C0D60116964D915D916D917C91199730
:104590004115510561057105F1F48F81922D40E0BF
:1045A00050E060E070E00E94AF1FAB01BC01413001
:1045B00051056105710509F460C04F3FFFEF5F07CA
:1045C000FFEF6F07FFEF7F0709F440C0F601468356
:1045D000578360877187D60154964D935D936D9391
:1045E0007C935797411551056105710509F055C038
:1045F000C0C0F60180899189A289B389840D951D77
:10460000A61DB71D808B918BA28BB38B868581FFF6
:104610000FC08F81922D0E94AF1FAB01BC014115CD
:1046200051056105710551F488249924540142C053
:104630008F81922D0E94BE1CAB01BC014F3FFFEF4A
:104640005F07FFEF6F07FFEF7F0739F481E0D601C7
:104650001F968C9333243394C6C0423051056105B4
:10466000710558F0E981FA818789908DA18DB28D0D
:10467000481759076A077B0720F082E0F601878711
:1046800067C08E0C9F1CA01EB11ED60154964D9380
:104690005D936D937C93579707C0EE24FF248701A9
:1046A000E418F50806091709481459046A047B043C
:1046B00008F49FCFF60180899189A289B389880D7A
:1046C000991DAA1DBB1D808B918BA28BB38BD5012D
:1046D000C4019170A070B0700097A105B10509F4F4
:1046E00048C069807A80BEEFEB2EBFEFFB2EBFEF94
:1046F0000B2FBFEF1B2FE40EF51E061F171FF30134
:104700008789908DA18DB28D0297A109B109E81614
:10471000F9060A071B07C0F42185328540E050E006
:10472000C801B7010E94114C9B01AC01F30183A5A4
:1047300094A5A5A5B6A5280F391F4A1F5B1F2115F3
:1047400031054105510539F482E0D6011F968C935D
:10475000A2E03A2E48C085017401F9E0169507954C
:10476000F794E794FA95D1F7E20EF31E041F151F94
:1047700003C0EE24FF248701F60120893189428994
:10478000538982859385A485B58582179307A407ED
:10479000B50768F4D6011A962D933D934D935C931B
:1047A0001D971E968C911E9780641E968C93F60121
:1047B00080899189A289B3899170A070B0700097A7
:1047C000A105B10581F0808D918DA28DB38DE81684
:1047D000F9060A071B0739F0D6015896ED92FD92AB
:1047E0000D931C935B97832D27960FB6F894DEBF2D
:1047F0000FBECDBFCF91DF911F910F91FF90EF9032
:10480000DF90CF90BF90AF909F908F907F906F90F0
:104810005F904F903F902F9008956F927F928F926C
:104820009F92AF92BF92CF92DF92EF92FF920F933F
:104830001F93CF93DF933C016A017B01FC01C08190
:10484000D181423051056105710508F470C08F892E
:10485000988DA98DBA8D481759076A077B0708F00C
:1048600066C0011511052105310569F0CE01B901B8
:10487000A8010FEF1FEF2FEF3FEF0E94A71E682F39
:10488000882309F055C0C301B701A6010E94BE1CD0
:104890004B015C01611571058105910511F460E022
:1048A00047C081E088169104A104B10409F43FC017
:1048B000EFEF8E16EFEF9E06EFEFAE06EFEFBE06C0
:1048C00011F461E035C0CE01B701A60100E010E0AF
:1048D00020E030E00E94A71E682F882349F52F852D
:1048E000388949895A898F89988DA98DBA8D0297FF
:1048F000A109B109281739074A075B0758F42F5F48
:104900003F4F4F4F5F4F2F87388B498B5A8B8C818E
:1049100081608C83750164018F89988DA98DBA8D12
:1049200088169906AA06BB0608F4ADCF01C062E05E
:10493000862FDF91CF911F910F91FF90EF90DF9025
:10494000CF90BF90AF909F908F907F906F90089581
:10495000EF92FF920F931F93DF93CF9300D0CDB7C9
:10496000DEB77C01BE016F5F7F4F0E949018182F49
:10497000882309F06DC0F7011785112309F068C07D
:10498000868581FD02C017E063C0F7012089318967
:104990004289538982859385A485B585281739076F
:1049A0004A075B0708F054C0211531054105510540
:1049B00091F44681578160857185C70100E010E060
:1049C00020E030E00E940D24182FF7011682178294
:1049D000108611862FC0F701448955896689778929
:1049E000C7010E94BE1CAB01BC014F3FFFEF5F0738
:1049F000FFEF6F07FFEF7F0711F411E01BC041309D
:104A000051056105710511F412E014C0E981FA81C4
:104A10008789908DA18DB28D481759076A077B074A
:104A200048F4F7010489158926893789C7010E944E
:104A30000D24182FF70180899189A289B389828773
:104A40009387A487B5878685806486871111178729
:104A5000812F0F900F90CF91DF911F910F91FF90B9
:104A6000EF900895EF92FF920F931F93CF93DF93F0
:104A7000EC017B010881198184E024C0C8010E94F7
:104A8000D418882351F5EA8DFB8D2081222381F1F2
:104A900093859F739C83253E71F02E3261F09F3089
:104AA00051F020E030E09F71983011F421E030E0C7
:104AB0002E153F05B1F0CE0160E070E00E94F620B7
:104AC000882359F44E895F89688D798D4115510588
:104AD0006105710599F6882321F01E8A1F8A188EB8
:104AE000198EDF91CF911F910F91FF90EF90089554
:104AF00084E0F3CFDF92EF92FF920F931F93DF9347
:104B0000CF9300D0CDB7DEB78C017B01BE016F5FC4
:104B10007F4F0E949018D82E8823F9F4E114F104F5
:104B200041F4C80140E050E060E070E00E949A1D4E
:104B300015C0C80160E070E00E943225843011F099
:104B4000882361F4C801B7010E94B610C80160E073
:104B500070E00E94F620843009F48D2D0F900F90A4
:104B6000CF91DF911F910F91FF90EF90DF9008950B
:104B7000CF92DF92EF92FF920F931F93CF93DF9329
:104B80008C016B01DC01ED90FC9040E050E060E0B6
:104B900070E00E949A1D882321F5C0E0D0E0F80162
:104BA00046895789608D718DC7010E94D41888236A
:104BB000C1F4D8015A96ED91FC915B97E081E53EF6
:104BC00029F0EE2319F0C0E0D0E004C02196CC1506
:104BD000DD0551F0C80161E070E00E94F6208823F5
:104BE000F1F2843009F487E0DF91CF911F910F91AA
:104BF000FF90EF90DF90CF900895DF92EF92FF92B9
:104C00000F931F93DF93CF93CDB7DEB7C254D0403D
:104C10000FB6F894DEBF0FBECDBF8E010F5B1F4FE6
:104C2000F80191838083C801BE016F5F7F4F42E02E
:104C30000E947419882309F0F4C089819A819A8F9F
:104C4000898FF801A081B18100E010E002C00F5F00
:104C50001F4FFD01E00FF11F80818032C0F701502E
:104C60001040FD01E00FF11F0F5F1F4F02C0015008
:104C700010400115110509F479C080813197803207
:104C8000B1F3DEC0FD01E60FF71FE0812E2F30E00B
:104C90006F5F7F4FE13818F1E03A20F0E03EF8F026
:104CA000ED3FE8F44A305105C0F460177107A8F4ED
:104CB000FD01E60FF71FE081E03478F0EF3720F0D8
:104CC000EF3759F0ED3F48F4922F88272E2F30E030
:104CD000282B392B6F5F7F4F02C020E030E0C901E5
:104CE000815690404A9710F42052304021153105EA
:104CF00009F494C0E8E4F3E001C031968081882390
:104D000029F090E082179307C1F788C02F3F310543
:104D100009F018F48BE090E002C08AE090E04817B8
:104D2000590708F07BC02F3F310539F030F0F7010B
:104D3000E40FF51F30834F5F5F4FF701E40FF51F5E
:104D400020834F5F5F4F6017710708F49BCFF70117
:104D5000E40FF51F80E203C081934F5F5F4F4B303C
:104D60005105D0F38B81853E09F458C01F8E18A2DF
:104D700019A21AA299E1E92EF12CEC0EFD1EC70131
:104D800040E050E060E070E00E949A1DD82E882339
:104D900009F046C0C70161E070E00E943225882317
:104DA00099F4EBA9FCA9012B61F0DF01FE01339618
:104DB0009E01225F3F4F81918D93E217F307D9F750
:104DC00025C085EE808322C0843059F5012B41F146
:104DD000C70161E070E00E94B825882311F5EBA9B6
:104DE000FCA980E290E011920197E9F7EBA9FCA9F8
:104DF00088E08387ABA9BCA9FE0133969E01225FA0
:104E00003F4F81918D93E217F307D9F7E981FA813A
:104E100081E08383CF010E942B1803C086E001C08C
:104E20008D2DCE5BDF4F0FB6F894DEBF0FBECDBF2A
:104E3000CF91DF911F910F91FF90EF90DF90089538
:104E40001B8260E070E040E050E083E0E82EF12C4F
:104E5000EC0EFD1E17CFAF92BF92CF92DF92EF9272
:104E6000FF920F931F93DF93CF93CDB7DEB7AC972D
:104E70000FB6F894DEBF0FBECDBF9CA78BA77B01FA
:104E80005A01CE018B96BE016F5F7F4F40E00E94BA
:104E90007419082F882309F072C0E114F10409F491
:104EA00044C089819A819C838B8319861A861B86CC
:104EB0001C86A3E0CA2ED12CCC0EDD1EC60140E01C
:104EC00050E060E070E00E949A1D182F882331F5B1
:104ED000C60161E070E00E943225182F8823F1F4AA
:104EE00020E030E0F701E20FF31FAD8DBE8DA20F81
:104EF000B31F8C9180832F5F3F4F2B30310591F78B
:104F0000F7012BE030E013862115310571F02150B7
:104F10003040828531978032B1F307C0143019F4E4
:104F2000F701108202C0112359F5A114B10439F11F
:104F3000E981FA81478D50A161A172A1CF010E9440
:104F4000D418182F8823E1F4E981FA818081833015
:104F500019F0843039F403C083E490E005C084E69E
:104F600090E002C087E290E0C3968E0F9F1F0E94E0
:104F70003310F501608371838283938301C0102F06
:104F8000812FAC960FB6F894DEBF0FBECDBFCF9188
:104F9000DF911F910F91FF90EF90DF90CF90BF9026
:104FA000AF9008958F929F92AF92BF92CF92DF926F
:104FB000EF92FF920F931F93CF93DF93EC018B013E
:104FC000C880D980FB0180818F3271F08C3561F00F
:104FD000F60183899489A589B6898E839F83A887E2
:104FE000B9870CC00F5F1F4FF80180818F32D1F35A
:104FF0008C35C1F31E821F8218861986F8018081C4
:10500000803250F03CE1A32EB12CAC0EBD1E20E24C
:10501000922E95E0892E0BC080E88FA3CE0140E050
:1050200050E060E070E00E949A1D682F0FC1F5010A
:105030008BE090E091920197E9F7F80180818E3240
:1050400041F040E050E060E070E088E0E82EF12CB4
:1050500028C0DE0180E090E0F801E80FF91FE08150
:105060000196EE3249F411968330910509F4EBC0B4
:105070005B96EC935B97F0CFEF3229F0EC3539F08B
:10508000E13208F0E0C0E13210F424E201C020E295
:10509000080F191F2FA3EDC048E050E0BBE0EB2E36
:1050A000F12CF801E60FF71F20816F5F7F4F21324F
:1050B00008F461C02F3211F02C3569F4F801E60FC5
:1050C000F71F03C06F5F7F4F319680818F32D1F31E
:1050D0008C35C1F350C02E3219F04E155F0540F0EB
:1050E000FBE0EF16F10409F4AEC02E32A9F2ABC01A
:1050F000213808F4B9C0203A30F0203E08F4B4C09A
:105100002D3F08F0B1C0F801E60FF71F30813034B1
:1051100008F499C03F3730F03F3709F494C03D3F61
:1051200008F091C0C70101974817590708F08BC0D4
:105130006F5F7F4FFE01E40FF51F248FCA010196B8
:10514000FE01E80FF91F348FAC0112C03196808147
:10515000882329F090E08A179B07C1F774C0822F3B
:1051600081568A3108F42052FE01E40FF51F248F86
:105170004F5F5F4F96CF452B09F465C08C8D853E00
:1051800009F48C8E213210F080E001C084E0060F1B
:10519000171F8FA36EC04E895F89688D798DC701F7
:1051A0000E94D418682F882329F5EA8DFB8D808111
:1051B000882311F464E01EC083858F738C838385FC
:1051C00083FD12C0DF01F5014BE050E08D91282FE7
:1051D00030E08191281B31094150504019F0232BB8
:1051E000A9F302C0232B31F0CE0160E070E00E94F1
:1051F000F62048C08FA1662391F0643039F590E025
:105200009C012470307085FF07C0232B09F40FCF59
:1052100080E88FA360E01AC0232BB9F017C082FD8D
:1052200015C08C8184FF11C06E857F8571706D5CA7
:105230007F4F6C0D7D1DC6010E9476106E837F83AB
:1052400088879987F4CE66E001C065E0862FDF91FC
:10525000CF911F910F91FF90EF90DF90CF90BF9073
:10526000AF909F908F900895A22FB0E0EDE1F3E012
:105270006ECFE880F980CE0140E050E060E070E061
:105280000E949A1D682F882309F485CFB3CF0F930E
:105290001F93DF93CF93CDB7DEB7AC970FB6F894DB
:1052A000DEBF0FBECDBF9CA78BA78B01CE018B9617
:1052B000BE016F5F7F4F42E00E947419882369F539
:1052C00089819A819C838B836BA57CA5CE010396F3
:1052D0000E94D227882309F58AA5807A11F086E0FA
:1052E0001CC08D8D9E8DF8014481558160E070E079
:1052F000BA01552744270681178120E030E0402B72
:10530000512B622B732B46960E945F10E981FA8124
:1053100081E08383CF010E942B18AC960FB6F894DE
:10532000DEBF0FBECDBFCF91DF911F910F910895CA
:105330000F931F93DF93CF93CDB7DEB7AC970FB624
:10534000F894DEBF0FBECDBF9CA78BA7062F142FEE
:10535000CE018B96BE016F5F7F4F42E00E947419B1
:10536000882319F589819A819C838B836BA57CA501
:10537000CE0103960E94D2278823B9F48AA5807AA9
:1053800011F086E012C0212F2772ED8DFE8D822F45
:105390008095938589232023822B8387E981FA8155
:1053A00081E08383CF010E942B18AC960FB6F8944E
:1053B000DEBF0FBECDBFCF91DF911F910F9108953A
:1053C000CF92DF92EF92FF921F93DF93CF93CDB7EF
:1053D000DEB7AA970FB6F894DEBF0FBECDBF9AA76F
:1053E00089A76B01CE0189967E010894E11CF11C0E
:1053F000B70140E00E947419182F8823A1F469A511
:105400007AA5C7010E94D227182F882361F488A5A6
:1054100087FF02C016E007C0C114D10421F0C70104
:10542000B6010E94B610812FAA960FB6F894DEBF7F
:105430000FBECDBFCF91DF911F91FF90EF90DF9016
:10544000CF9008950F931F93DF93CF9300D000D098
:10545000CDB7DEB78C017C836B83009711F489E0B4
:105460003FC0CE010396BE016F5F7F4F40E00E94B8
:105470007419882391F589819A81F8019183808339
:105480006B817C81C8010E94D227882301F5F80135
:1054900087A187FD0EC0848184FF1EC0628D738D3D
:1054A00089819A810E947610F801668377838087CC
:1054B0009187E981FA8185819681F80193838283BE
:1054C000C80140E050E060E070E00E949A1D843026
:1054D00019F0882329F001C085E0F80111821082BB
:1054E0000F900F900F900F90CF91DF911F910F9120
:1054F00008950F93DF93CF93CDB7DEB7AE970FB676
:10550000F894DEBF0FBECDBF9CA78BA7CE018B96B4
:10551000BE016F5F7F4F40E00E947419082F8823FF
:1055200081F589819A819C838B836BA57CA5CE01B3
:1055300003960E94D227082F882301F58AA587FFAA
:105540000BC0E981FA8189859A85AB85BC85838BFF
:10555000948BA58BB68B15C08F8184FF11C0898178
:105560009A819EA78DA76D8D7E8D0E947610EDA5E8
:10557000FEA5638B748B858B968B03C0843009F4F6
:1055800005E0802FAE960FB6F894DEBF0FBECDBFFC
:10559000CF91DF910F9108950F931F93CF93DF93D6
:1055A000EC010881198161E070E00E94B825482F64
:1055B0008823F9F44E895F89688D798DC8010E942E
:1055C000D418482F8823A9F4EA8DFB8D80E290E05F
:1055D00011920197E9F7AA8DBB8DFE017C962BE015
:1055E00030E081918D9321503040D9F781E0F8016E
:1055F0008383842FDF91CF911F910F910895AF92F4
:10560000BF92CF92DF92EF92FF920F931F93DF939F
:10561000CF93CDB7DEB7AC970FB6F894DEBF0FBE11
:10562000CDBF9CA78BA7CE018B96BE016F5F7F4F2E
:1056300042E00E947419F82E882309F0D0C08981B5
:105640009A819C838B838E010D5F1F4F6BA57CA578
:10565000C8010E94D227F82E882351F084E0F81662
:1056600009F0BDC08AA585FF06C046E0F42EB7C08C
:1056700038E0F32EB4C0C80140E050E060E070E0D4
:105680000E94AF1F5B016C01E981FA8181859285DF
:10569000A0E0B0E029E0880F991FAA1FBB1F2A9540
:1056A000D1F78D879E87AF87B88BA114B104C10451
:1056B000D10419F407E0F02E88C081E0A816B104E7
:1056C000C104D10419F412E0F12E7FC08FEFA816A7
:1056D0008FEFB8068FEFC8068FEFD80609F491C098
:1056E000CF010E945917F82E882309F06EC08981D6
:1056F0009A81B601A5010E94AF17F82E882309F000
:1057000064C009811A81B3E3EB2EF12CE00EF11E87
:10571000F7018BE090E020E221930197E9F78EE218
:10572000F80183AB80E186AFC801875B9F4F40E003
:1057300050E061E278E40E945F1089819A81B701AC
:10574000A60195010E94A510F70120E230E08081BA
:1057500080A3319621503040D1F70C5A1F4F8EE272
:10576000F80180830150104029853A854B855C857E
:1057700089819A81B8010E94A510E981FA81EE24FD
:10578000E394E382CE0103960E94CC2AF82E88236C
:10579000E1F40D8D1E8DC801469640E050E061E2B7
:1057A00078E40E945F1089819A81B801A601950171
:1057B0000E94A51080E1F8018387E981FA81E382E4
:1057C000CF010E942B18F82E0AC0CE010396B60115
:1057D000A50100E010E020E030E00E940D248F2DB4
:1057E000AC960FB6F894DEBF0FBECDBFCF91DF9160
:1057F0001F910F91FF90EF90DF90CF90BF90AF90EF
:105800000895FF24F394E1CFDF92EF92FF920F937C
:105810001F93DF93CF93CDB7DEB7C657D0400FB6F7
:10582000F894DEBF0FBECDBF8E010D581F4FD801BB
:105830008D939C93FE01EB58FF4F71836083CF01E2
:105840000E941011C801BE016F5F7F4F42E00E94AD
:105850007419882309F00BC189819A819CA38BA3B9
:1058600063E2E62EF12CEC0EFD1EF80160817181E1
:10587000C7010E94D227882309F0F9C0FE01E65B28
:10588000FF4F8081807A11F086E0F1C08DAD9EAD32
:105890009C01D901FE0133968D918193EE15FF0590
:1058A000D9F720E030E08E01055B1F4FAE014D5D62
:1058B0005F4FF801E20FF31FDA01A20FB31F8C91C3
:1058C00080832F5F3F4F2832310599F7FE01EB5857
:1058D000FF4F60817181C8010E94D227882309F59A
:1058E000D80116962D913D914D915C91199789A5FE
:1058F0009AA5ABA5BCA5281739074A075B0709F08D
:105900009CC0F801268537854089518989A99AA9C3
:10591000ABA9BCA9281739074A075B0709F08DC056
:1059200003C0843009F0A3C08E01055B1F4FC8017E
:105930000E94CC2A882309F09AC0D8015A966D910A
:105940007C915B97DB01FE01709681911D968C9393
:105950001D971196EE15FF05C1F78E85FB01838714
:1059600084FD02C080628387E981FA81DD24D394BB
:10597000D382DB011B968C9184FF61C05BE4E52E32
:10598000F12CEC0EFD1E29A53AA54BA55CA5F7014F
:1059900086819781A085B185281739074A075B075B
:1059A00009F44DC009811A81C8010E9476109B013B
:1059B000AC012250304040405040F8018789908D22
:1059C000A18DB28D0297A109B109281739074A079D
:1059D0005B0708F04BC06185728580E090E00E9413
:1059E000114CAB01BC01F80183A594A5A5A5B6A5F2
:1059F000480F591F6A1F7B1F41155105610571052D
:105A0000A9F1C8010E94D41869817A81882379F5A7
:105A1000FB01ED5AFF4F81818E3289F4D701169632
:105A20002D913D914D915C911997CB01BF010E9441
:105A3000A510E981FA81D38202C088E018C00BA1C9
:105A40001CA149AD5AAD6BAD7CADC8010E94D41804
:105A5000882369F4EDADFEAD85EE808381E0F80129
:105A6000838389819A810E942B1801C082E0CA58E1
:105A7000DF4F0FB6F894DEBF0FBECDBFCF91DF91E1
:105A80001F910F91FF90EF90DF900895BF92CF92FA
:105A9000DF92EF92FF920F931F93DF93CF93CDB7D7
:105AA000DEB7C455D0400FB6F894DEBF0FBECDBFF1
:105AB0008E010D5A1F4FF80191838083C801BE01EA
:105AC0006F5F7F4F42E00E947419882309F05DC028
:105AD00089819A819C838B83F80160817181CE01D9
